:020000040800F2
:1000000010040020D900000825100008590C000831
:1000100000000000000000000000000000000000E0
:10002000000000000000000000000000291000088F
:100030000000000000000000271000082B1000083E
:10004000EB000008EB000008EB000008EB000008E4
:10005000EB000008EB000008EB000008EB000008D4
:1000600000000000EB000008EB000008EB000008B7
:10007000EB000008EB00000800000000EB000008A7
:100080000000000000000000000000000000000070
:10009000EB00000800000000EB000008EB00000887
:1000A00000000000EB00000800000000000000005D
:1000B000EB000008EB00000800000000000000005A
:1000C0000448854600F03EF9004800474111000809
:1000D000C046C0461004002004488047044800473A
:1000E000FEE7FEE7FEE7FEE7FEE7FEE7A9100008F1
:1000F000C100000830B50B46014600202022012433
:1001000009E00D46D5409D4205D31D469540491B4B
:100110002546954040191546521E002DF1DC30BD94
:10012000F0B51FB40646002082B005464024019178
:1001300000901BE0019922460F46304600F0AFF8D0
:10014000049A059B801A994110D3104619462246FD
:1001500000F095F8361A8F410197224601200021C0
:10016000009F00F08CF838184D4100902046641E26
:100170000028DFDC019B00982946324607B0F0BD1D
:10018000D2B201E00270401C491EFBD2704700222F
:10019000F6E710B513460A4604461946FFF7F0FF86
:1001A000204610BDF8B502464A40D40F42004B002D
:1001B00052085B089A4202D20246084611464A009B
:1001C00023D0C30D4A00DDB2120EAD1A202D35DA50
:1001D00049020126490AF6058A19002C00D052422C
:1001E00020214F1B1146B9402A411018C20D9A42D6
:1001F00021D0002C17D0012D08DCDA05801AD20F8F
:100200008019D207DBB200F063F8F8BDDA05801A76
:10021000012340001B06C01880185A428018CA0FDC
:100220001043490007E04908C2071143DA05801A64
:1002300080194008801800F043F8F8BD61000122E1
:10024000511A001BF7E70122D2075140AAE7012209
:10025000D2075040A6E7410040020122400AD205E1
:10026000090E80187F2901DA00207047962903DCE7
:100270009622511AC840704796398840704710B589
:10028000202A04DB0146203A9140002010BD914015
:1002900020239C1A0346E3401943904010BD10B53B
:1002A000202A04DB0846203AD040002110BD0B462E
:1002B000D340D0402024A21A91400843194610BDD3
:1002C000002904DA401C490001D140084000704771
:1002D00070B40024050C05D11024000402D10029BB
:1002E00021D01124050E01D100020834050F01D1DF
:1002F0000001241D850F01D18000A41C002801DB12
:100300004000641C002908D020252E1B0D46F54016
:10031000A14000D001212943084301061B1B000A0C
:10032000DB1D02D5002070BC7047DB051818801853
:100330000029F8DA401C4900F5D170BC40084000A3
:1003400070470000064C0125064E05E0E36807CC27
:100350002B430C3C98471034B442F7D3FFF7B4FE5C
:10036000F05F00081060000870B5044600F0E4F883
:100370000546601C02D004480078241800F0DCF820
:10038000401BA042FAD370BD00000020F8B5002346
:1003900003240125B8E032462E469E40B446324042
:1003A00079D00E79B607B60F012E01D0022E17D1E3
:1003B00086682746B6465E00B74000967646BE433E
:1003C000B646CF68009EB74076463743876046689A
:1003D0006746BE430F79FF06FF0F9F4037434760D4
:1003E0000E79F643B6070ED0C6682746B4465E00BF
:1003F000B646B7406646BE43B4468F687646B740B9
:1004000066463743C7600E79B607B60F022E14D181
:10041000DE08B60036180096366A5F07B446FE0E50
:100420000F27B646B7406646BE43B4460F697646C8
:10043000B74066463743009E376206682746B44693
:100440005E00B646B7406646BE430F79B446BF0766
:10045000BF0F7646B7406646374307604E68B6031F
:10046000B60F50D02B4F7E6B2E437E639F082A4ED3
:10047000BF00BE190096B6680F27B4469E07360F18
:10048000B646B7406646BE4305273F07B446B84266
:1004900002D1002710E036E0204FB84201D10127F9
:1004A0000AE01F4FB84201D1022705E01D4FB842B4
:1004B00001D1052700E006277646B7406646374358
:1004C000009EB760184EB6684F689643FF0200D58D
:1004D0001643154FBE60FE684F689643BF0200D5B5
:1004E0001643114FFE607E684F689643BF0300D5E8
:1004F00016430D4F7E603E684F689643FF0300D55C
:100500001643094A16605B1C0A681646DA4000D09A
:1005100041E7F8BD00100240000001400004005017
:1005200000080050001C005000040140002A01D0C7
:1005300081617047816270470148806870470000A0
:1005400000000020024881680278891881607047A5
:100550000000002010B50848002401684022114323
:100560000160032000F00AF8002801D0012401E016
:1005700000F026F8204610BD0020024070B5044669
:100580000D4D7D202978C000FFF7B4FD01460B48D2
:100590000068FFF7AFFD00F047FB002809D1042CED
:1005A00007D200222146401E00F016F800206C60A1
:1005B00070BD012070BD0000000000200C00002074
:1005C0000448416B012211434163816B02041143D2
:1005D000816370470010024010B500F07FFD10BD30
:1005E000F8B50E46050038D05E480068C007C00F59
:1005F000B04214D25B4C2068400840003043206079
:10060000FFF79AFF074605E0FFF796FFC11B564824
:1006100081427AD82068C007C00FB042F4D1287850
:10062000524C800705D5E068F0218843A96808434B
:10063000E0602878C00752D06868022806D00328F6
:1006400007D0216801280AD0890504E021688903C0
:1006500001E021688901002903DB0120F8BD490779
:10066000F9E7E168890889000143E160FFF764FF69
:100670000746686802280AD0032814D001281ED033
:1006800029E0FFF759FFC11B374881423DD8E06898
:100690000007800F0228F4D121E0FFF74DFFC11BB6
:1006A0003148814231D8E0680007800F0328F4D137
:1006B00015E0FFF741FFC11B2B48814225D8E068B8
:1006C0000007800F0128F4D109E0FFF735FFC11BB7
:1006D0002548814219D8E0680007800FF5D12148EC
:1006E0000168C907C90FB14217D901684908490013
:1006F00031430160FFF720FF074608E005E0FFF700
:100700001BFFC11B1848814201D90320F8BD1548C1
:100710000068C007C00FB042F1D12878400706D565
:10072000E068072109028843E9680843E060287807
:10073000000707D5E0680721C90288432969C90075
:100740000843E06000F01AF8E168094A0906090F59
:10075000515CC8400749086007480068FFF70EFF72
:10076000F8BD000000200240881300000010024085
:10077000D45F00080C0000200400002070B51A4A65
:10078000D3681A490C2018408D0004280CD04E0064
:10079000082810D00C2810D050680004410F012008
:1007A000C003491C884070BD1068C00601D50846CA
:1007B00070BD284670BD304670BD98020C4C000FCD
:1007C000205C1B029C0FD368641CDB0301D53146FF
:1007D00003E01268D20600D4294600F066FC2246E7
:1007E0000023FFF79DFC70BD0010024000093D0092
:1007F000E45F0008FEB505007ED0F74CE7680C20EA
:10080000E66807400120000406402878C00747D06A
:10081000082F05D00C2F0AD101200004864206D1F2
:10082000206880033CD568680028E5D038E00120C6
:1008300069680004814203D121680143216011E00D
:10084000052301221B0492049942216802D111431D
:100850002160F1E781432160216801400091206817
:1008600090432060686800280DD0FFF765FE009077
:1008700005E0FFF761FE0099401A64287ED82068E1
:100880008003F6D50CE0FFF757FE009005E0FFF778
:1008900053FE0099401A6428F0D820688003F6D4EB
:1008A000287880075DD5E868810604D52268202174
:1008B0000A43226088430923042F0DD00C2F01D155
:1008C000002E09D000283CD02168994301432160C3
:1008D000FFF732FE064628E02168490701D50028C7
:1008E0008AD061681F22120291432A6912021143C1
:1008F00061602168994300E091E101432160FFF7C5
:100900003DFFE16809060A0FB449895CC840B44953
:100910000860B4480068FFF731FE002874D120E079
:10092000FFF70AFE801B0228A8D820684007F7D5E9
:1009300060681F2109028843296909020843606031
:100940000FE02068400840002060FFF7F5FD0646F4
:1009500004E0FFF7F1FD801B02288FD820684007D4
:10096000F7D42878C00661D5002F0DD0A8690028DB
:100970004BD02068FF210131084300E0C6E0206031
:10098000FFF7DAFD06462DE02068800502D5A8694C
:100990000028A5D06068072149038843296A0843D5
:1009A00060606068297F0002000A090608436060F1
:1009B000286A410B0120C003491C8840E1680906F0
:1009C0000A0F8649895CC8408549086085480068E7
:1009D000FFF7D4FD002817D128E0FFF7ADFD801BFD
:1009E0000228A1D820688005F7D56068072149034F
:1009F0008843296A084360606068297F0002000A12
:100A000009060843606011E0E1E02168FF20013041
:100A100081432160FFF790FD064604E0FFF78CFD5F
:100A2000801B022872D820688005F7D428786E4E83
:100A3000000724D568690028306910D001210843D7
:100A40003061FFF779FD009005E0FFF775FD009933
:100A5000401A02285AD830698007F6D50FE04008BE
:100A600040003061FFF768FD009005E0FFF764FD8E
:100A70000099401A022849D830698007F6D42878AE
:100A8000400765D500200290A06BC00006D4A06B83
:100A9000012109070843A06301200290534801681F
:100AA000C90511D40168821511430160FFF744FDA7
:100AB000009005E0FFF740FD0099401A642825D812
:100AC0004A480068C005F5D5FF20AA680130824277
:100AD00003D131690143316111E001218902002A0A
:100AE00007D005231B029A4203D132690A433261BF
:100AF000EFE7326982433261306988433061A86828
:100B000000280FD0FFF718FD009007E05EE0FFF728
:100B100013FD0099411A3648814257D83069800543
:100B2000F5D50DE0FFF708FD009006E0FFF704FDA6
:100B30000099411A2E48814248D830698005F5D481
:100B40000298002804D0A06B012109078843A06304
:100B5000686A002865D00C2F4CD001263606022882
:100B6000206805D0B0432060FFF7E6FC05462FE083
:100B7000B0432060FFF7E0FC074604E0FFF7DCFC31
:100B8000C01B022822D820688001F7D4E96AA86A2D
:100B9000E2680843296BFD231B049A431143084371
:100BA000E060206830432060FFF7C6FC054604E0A3
:100BB000FFF7C2FC401B022808D820688001F7D547
:100BC0002FE0FFF7B9FC401B022801D90320FEBD2E
:100BD00020688001F5D424E000100240D45F0008B2
:100BE0000C00002004000020401002400070004073
:100BF000881300000128EAD0E06801210904AA6AEC
:100C0000014091420BD10F218904EA6A01409142CF
:100C100005D1032189050840296B884201D00120B4
:100C2000FEBD0020FEBD0000094910B5401E8842EF
:100C300001D9012010BD074C60610321081F00F09D
:100C40004DFA0020A06107202061002010BD0000A7
:100C5000FFFFFF0000E000E0FEE7F8B506461C4697
:100C600017460D462A2000F05AF9304600F04AF99E
:100C7000384600F047F92B2000F051F92235A8B290
:100C800000F040F92234A0B200F03CF92C2000F032
:100C900046F9F8BDFFB51F46581E83B21646501ED2
:100CA00081B082B20C460198FFF7D7FF0AE0019DA0
:100CB00004E00A9800F026F96D1CADB2B542F8D3F5
:100CC000641CA4B2BC42F2D305B0F0BD10B505203F
:100CD000002201210007FFF729FC6420FFF744FBF5
:100CE000112000F01CF9362000F019F9A02000F0C6
:100CF00028F93A2000F013F9052000F022F9B2207B
:100D000000F00DF90C2000F01CF90C2000F019F98E
:100D1000002000F016F9332000F013F9332000F022
:100D200010F9B72000F0FBF8352000F00AF9BB20DD
:100D300000F0F5F8352000F004F9C02000F0EFF8DD
:100D40002C2000F0FEF8C22000F0E9F8012000F0AD
:100D5000F8F8C32000F0E3F8132000F0F2F8C42004
:100D600000F0DDF8202000F0ECF8C62000F0D7F805
:100D7000002000F0E6F8D02000F0D1F8A42000F028
:100D8000E0F8A12000F0DDF8D62000F0C8F8A1209E
:100D900000F0D7F8E02000F0C2F8F02000F0D1F821
:100DA000002000F0CEF8042000F0CBF8042000F082
:100DB000C8F8042000F0C5F8052000F0C2F829208A
:100DC00000F0BFF8332000F0BCF83E2000F0B9F886
:100DD000382000F0B6F8122000F0B3F8122000F02E
:100DE000B0F8282000F0ADF8302000F0AAF8E1209B
:100DF00000F095F8F02000F0A4F8072000F0A1F82A
:100E00000A2000F09EF80D2000F09BF80B2000F067
:100E100098F8072000F095F8282000F092F8332089
:100E200000F08FF83E2000F08CF8362000F089F8B2
:100E3000142000F086F8142000F083F8292000F038
:100E400080F8322000F07DF8212000F068F81120B1
:100E500000F065F87820FFF787FA292000F05FF8A6
:100E600010BDFFB5054681B01F460C460026332055
:100E700000F055F8002000F045F8FF20413000F068
:100E800041F8002000F03EF82A2000F048F82846FB
:100E900000F038F803982818401E80B200F032F8AD
:100EA0002B2000F03CF82046223080B200F02AF8D7
:100EB000E019213080B200F025F8362000F02FF83C
:100EC000A02000F028F82C2000F029F8002514E0DC
:100ED00000240EE0700000900A99085C00F01BF8F6
:100EE0000A9900984018407800F015F8641CA4B2E4
:100EF000761CBC42EED36D1CADB203988542E7D39D
:100F000005B0F0BD10B50446000A00F01AF8E0B2D2
:100F100000F017F810BD10B500F013F810BD70B553
:100F2000052405462407002240212046FFF7FEFA4B
:100F3000284600F006F8012240212046FFF7F6FA85
:100F400070BD70B5052605463607002202213046E1
:100F5000FFF7ECFA0024002210213046FFF7E6FAF2
:100F6000280601D5012200E0002220213046FFF7AB
:100F7000DDFA012210213046FFF7D8FA6806641C1A
:100F8000050EE4B2082CE6D3012202213046FFF719
:100F9000CDFA70BDF0B587B014216846FFF7F7F8B9
:100FA0001E48C26A04210A43C262C26A0A4005920C
:100FB000C16A01242143C162C06A194F2040E50380
:100FC0000590224629463846FFF7B0FA0520002250
:100FD00001210007FFF7AAFA05200122722100076C
:100FE000FFF7A4FA00950025032601AA70C26946FE
:100FF0003846FFF7CBF905200094029569460007B3
:1010000003950194FFF7C2F972206A4671C2052068
:1010100069460007FFF7BAF907B0F0BD00100240BB
:1010200000080050FEE77047704710B5FFF78AFAD6
:1010300010BD000010B592B034216846FFF7A7F844
:1010400014210DA8FFF7A3F8164801680322D20265
:101050009143C214891801600121022003911021DB
:1010600000900491099040040B90000100240C9022
:101070000A946846FFF7BEFB002801D072B6FEE76F
:101080000F200D9003200E900F94109401211194C5
:101090000DA8FFF7A5FA002801D072B6FEE712B03E
:1010A00010BD0000007000407047F8B5040C8BB212
:1010B000264682B25E430D0C1046370C5843360468
:1010C00080190021794116466E43370C3604801989
:1010D000794126466E438919F8BD00008307FF2237
:1010E000DB0E9A408907090E9940002808DB830827
:1010F00009489B001B181868904308431860704704
:101100000007000F0838830804489B001B18D869A3
:1011100090430843D861704700E400E000ED00E030
:1011200002E008C8121F08C1002AFAD170477047B0
:10113000002001E001C1121F002AFBD1704700000E
:1011400008B5FFF707FAFFF775FFFFF723FF002445
:10115000FFF7BCFD1448FF2200210090AC23413270
:101160000846FFF797FD1148642300901A46242192
:101170000020FFF776FE7F260D4DF605314620460E
:10118000FFF710F80446A84200DD00243720FFF7DF
:10119000C6FE2046FFF75FF880B2FFF7B3FE0A20D5
:1011A000FFF7E2F8EAE70000FFFF0000B4110008D3
:1011B0000000A043FFFFFFFFFFFFFFFFFFFFFFFF58
:1011C000FFFFFFFFFFFFFFFFFFFFFFFFFFFFFFFF2F
:1011D000FFFFFFFFFFFFFFFFFFFFFFFFFFFFFFFF1F
:1011E000FFFFFFFFFFFFFFFFFFFFFFFFFFFFFFFF0F
:1011F000FFFFFFFFFFFFFFFFFFFFFFFFFFFFFFFFFF
:101DC000FFFFFFFFFFFFFFFFFFFFBEF7FFFFFFFF6C
:101DD000FFFFFFFFDFFFDFFFDFFFFFFFFFFFFFFF73
:101DE000FFFFFFFFFFFFFFFFFFFFFFFFFFFFFFFF03
:101DF000FFFFFFFFFFFFFFFFFFFFFFFFFFFFFFFFF3
:101E0000FFFFFFFFFFFFFFFFFFFFFFFFFFFFFFFFE2
:101E1000FFFFFFFFFFFFFFFFFFFFFFFFFFFFFFFFD2
:101E2000FFFFFFFFFFFFFFFFFFFFFFFFFFFFFFFFC2
:101E3000FFFFFFFFFFFFFFFFFFFFFFFFFFFFFFFFB2
:101E4000FFFFFFFFFFFFFFFFFFFFFFFFFFFFFFFFA2
:101E5000FFFFFFFFFFFFFFFFFFFFFFFFFFFFFFFF92
:101E6000FFFFFFFFFFFFFFFFFFFFFFFFFFFFFFFF82
:101E7000FFFFFFFFFFFFFFFFFFFFFFFFFFFFFFFF72
:101E8000FFFFFFFFFFFFDFFF55AD4108610861085D
:101E9000610861086108610861086108610841081A
:101EA000410861081084BEF7FFFFFFFFFFFFFFFF3F
:101EB000FFFFFFFFFFFFFFFFFFFFFFFFFFFFFFFF32
:101EC000FFFFFFFFFFFFFFFFFFFFFFFFFFFFFFFF22
:101ED000FFFFFFFFFFFFFFFFFFFFFFFFFFFFFFFF12
:101EE000FFFFFFFFFFFFFFFFFFFFFFFFFFFFFFFF02
:101EF000FFFFFFFFFFFFFFFFFFFFFFFFFFFFFFFFF2
:101F0000FFFFFFFFFFFFFFFFFFFFFFFFFFFFFFFFE1
:101F1000FFFFFFFFFFFFFFFFFFFFFFFFFFFFFFFFD1
:101F2000FFFFFFFFFFFFFFFFFFFFFFFFFFFFFFFFC1
:101F3000FFFFFFFFFFFFFFFFFFFFFFFFFFFFFFFFB1
:101F4000FFFFFFFFFFFFFFFFBEF7410042086008F1
:101F50006008610842104210600860086208611061
:101F600061084208420842084208610861084008C6
:101F700020008210FFFFFFFFFFFFFFFFFFFFFFFFBB
:101F8000FFFFFFFFFFFFFFFFFFFFFFFFFFFFFFFF61
:101F9000FFFFFFFFFFFFFFFFFFFFFFFFFFFFFFFF51
:101FA000FFFFFFFFFFFFFFFFFFFFFFFFFFFFFFFF41
:101FB000FFFFFFFFFFFFFFFFFFFFFFFFFFFFFFFF31
:101FC000FFFFFFFFFFFFFFFFFFFFFFFFFFFFFFFF21
:101FD000FFFFFFFFFFFFFFFFFFFFFFFFFFFFFFFF11
:101FE000FFFFFFFFFFFFFFFFFFFFFFFFFFFFFFFF01
:101FF000FFFFFFFFFFFFFFFFFFFFFFFFFFFFFFFFF1
:10200000FFFFFFFFFFFFFFFFFFFFBEF7A21041082A
:1020100061084110A118C87B90DE11EFF1F6EFEED8
:1020200010F7EFF6EFF60FF7EFF6F0F610F7F0EE29
:1020300031F76EBD05424010411041084008C21002
:102040005CEFFFFFFFFFFFFFFFFFFFFFFFFFFFFF53
:10205000FFFFFFFFFFFFFFFFFFFFFFFFFFFFFFFF90
:10206000FFFFFFFFFFFFFFFFFFFFFFFFFFFFFFFF80
:10207000FFFFFFFFFFFFFFFFFFFFFFFFFFFFFFFF70
:10208000FFFFFFFFFFFFFFFFFFFFFFFFFFFFFFFF60
:10209000FFFFFFFFFFFFFFFFFFFFFFFFFFFFFFFF50
:1020A000FFFFFFFFFFFFFFFFFFFFFFFFFFFFFFFF40
:1020B000FFFFFFFFFFFFFFFFFFFFFFFFFFFFFFFF30
:1020C000FFFFFFFFFFFFFFFFFFFFFFFFFFFFDFFF40
:1020D000810862106008D4E610EF2FEF0FF710F7B9
:1020E0000FF70FF70FF70FF70FF70FF70FF70FF7C0
:1020F0000FF70FF70FF70FF710F710F70FF72FF78E
:102100000FF7F0EE8239411040086108518CFFFF53
:10211000FFFFFFFFFFFFFFFFFFFFFFFFFFFFFFFFCF
:10212000FFFFFFFFFFFFFFFFFFFFFFFFFFFFFFFFBF
:10213000FFFFFFFFFFFFFFFFFFFFFFFFFFFFFFFFAF
:10214000FFFFFFFFFFFFFFFFFFFFFFFFFFFFFFFF9F
:10215000FFFFFFFFFFFFFFFFFFFFFFFFFFFFFFFF8F
:10216000FFFFFFFFFFFFFFFFFFFFFFFFFFFFFFFF7F
:10217000FFFFFFFFFFFFFFFFFFFFFFFFFFFFFFFF6F
:10218000FFFFFFFFFFFFFFFFFFFFFFFFFFFFFFFF5F
:10219000FFFFDEF761104208A12050F70FF710F79C
:1021A0000FF70FF70FF70FF70FF70FF70FF70FF7FF
:1021B0000FF70FF70FF70FF70FF70FF70FF70FF7EF
:1021C0000FF70FF70FF70FF70FF70FF70FF710F7DE
:1021D0006EBD411040104110C739DFFFFFFFFFFF08
:1021E000FFFFFFFFFFFFFFFFFFFFFFFFFFFFFFFFFF
:1021F000FFFFFFFFFFFFFFFFFFFFFFFFFFFFFFFFEF
:10220000FFFFFFFFFFFFFFFFFFFFFFFFFFFFFFFFDE
:10221000FFFFFFFFFFFFFFFFFFFFFFFFFFFFFFFFCE
:10222000FFFFFFFFFFFFFFFFFFFFFFFFFFFFFFFFBE
:10223000FFFFFFFFFFFFFFFFFFFFFFFFFFFFFFFFAE
:10224000FFFFFFFFFFFFFFFFFFFFFFFFFFFFFFFF9E
:10225000FFFFFFFFFFFFBEF782104110E02011F7E4
:10226000F0F60FF70FF70FF70FF70FF70FF70FF75E
:102270000FF70FF70FF70FF70FF70FF70FF70FF72E
:102280000FF70FF70FF70FF70FF70FF70FF70FF71E
:102290000FF70FF70FF710F70FF70FF790DE40105B
:1022A000411041108A52DFFFFFFFFFFFFFFFFFFFDA
:1022B000FFFFFFFFFFFFFFFFFFFFFFFFFFFFFFFF2E
:1022C000FFFFFFFFFFFFFFFFFFFFFFFFFFFFFFFF1E
:1022D000FFFFFFFFFFFFFFFFFFFFFFFFFFFFFFFF0E
:1022E000FFFFFFFFFFFFFFFFFFFFFFFFFFFFFFFFFE
:1022F000FFFFFFFFFFFFFFFFFFFFFFFFFFFFFFFFEE
:10230000FFFFFFFFFFFFFFFFFFFFFFFFFFFFFFFFDD
:10231000FFFFFFFFFFFFFFFFFFFFFFFF61106108EF
:102320004110F4EE0FF70FF70FF70FF70FF70FF756
:102330000FF70FF70FF70FF70FF70FF70FF70FF76D
:102340000FF70FF70FF70FF70FF70FF70FF70FF75D
:102350000FF70FF70FF70FF70FF70FF70FF70FF74D
:102360000FF70FF70FF70FF7F3E622106110411088
:102370002C6BFFFFFFFFFFFFFFFFFFFFFFFFFFFFD4
:10238000FFFFFFFFFFFFFFFFFFFFFFFFFFFFFFFF5D
:10239000FFFFFFFFFFFFFFFFFFFFFFFFFFFFFFFF4D
:1023A000FFFFFFFFFFFFFFFFFFFFFFFFFFFFFFFF3D
:1023B000FFFFFFFFFFFFFFFFFFFFFFFFFFFFFFFF2D
:1023C000FFFFFFFFFFFFFFFFFFFFFFFFFFFFFFFF1D
:1023D000FFFFFFFFFFFFFFFFFFFFFFFFFFFFFFFF0D
:1023E00075AD41084110401011F70FF70FF70FF7C7
:1023F0000FF70FF70FF70FF70FF70FF70FF70FF7AD
:102400000FF70FF70FF70FF70FF70FF70FF70FF79C
:102410000FF70FF70FF70FF70FF70FF70FF70FF78C
:102420000FF70FF70FF70FF70FF70FF70FF710F77B
:10243000F0F6EFEE6018610841104108DFFFFFFF82
:10244000FFFFFFFFFFFFFFFFFFFFFFFFFFFFFFFF9C
:10245000FFFFFFFFFFFFFFFFFFFFFFFFFFFFFFFF8C
:10246000FFFFFFFFFFFFFFFFFFFFFFFFFFFFFFFF7C
:10247000FFFFFFFFFFFFFFFFFFFFFFFFFFFFFFFF6C
:10248000FFFFFFFFFFFFFFFFFFFFFFFFFFFFFFFF5C
:10249000FFFFFFFFFFFFFFFFFFFFFFFFFFFFFFFF4C
:1024A000FFFFFFFFDFFF000041086208C23911FF94
:1024B00010F70FF70FF70FF70FF70FF70FF70FF7EB
:1024C0000FF70FF70FF70FF70FF70FF70FF70FF7DC
:1024D0000FF70FF70FF70FF70FF70FF70FF70FF7CC
:1024E0000FF70FF70FF70FF70FF70FF70FF70FF7BC
:1024F0000FF70FF70FF70FF70FF70FF70FFF6B9CA3
:1025000061104110410818C6FFFFFFFFFFFFFFFFEA
:10251000FFFFFFFFFFFFFFFFFFFFFFFFFFFFFFFFCB
:10252000FFFFFFFFFFFFFFFFFFFFFFFFFFFFFFFFBB
:10253000FFFFFFFFFFFFFFFFFFFFFFFFFFFFFFFFAB
:10254000FFFFFFFFFFFFFFFFFFFFFFFFFFFFFFFF9B
:10255000FFFFFFFFFFFFFFFFFFFFFFFFFFFFFFFF8B
:10256000FFFFFFFFFFFFFFFFFFFFFFFF821041089C
:10257000411032D60FFF10F70FF70FF70FF70FF7D5
:102580000FF70FF70FF70FF70FF70FF70FF70FF71B
:102590000FF70FF70FF70FF70FF70FF70FF70FF70B
:1025A0000FF70FF70FF70FF70FF70FF70FF70FF7FB
:1025B0000FF70FF70FF70FF70FF70FF70FF70FF7EB
:1025C0000FF70FF70FF70FF733F7211041104108FE
:1025D000E320FFFFFFFFFFFFFFFFFFFFFFFFFFFF06
:1025E000FFFFFFFFFFFFFFFFFFFFFFFFFFFFFFFFFB
:1025F000FFFFFFFFFFFFFFFFFFFFFFFFFFFFFFFFEB
:10260000FFFFFFFFFFFFFFFFFFFFFFFFFFFFFFFFDA
:10261000FFFFFFFFFFFFFFFFFFFFFFFFFFFFFFFFCA
:10262000FFFFFFFFFFFFFFFFFFFFFFFFFFFFFFFFBA
:10263000FFFF610841084108F2EE0EF70FF70FF7B0
:102640000FF70FF70FF70FF70FF70FF70FF70FF75A
:102650000FF70FF70FF70FF70FF70FF70FF70FF74A
:102660000FF70FF70FF70FF70FF70FF70FF70FF73A
:102670000FF70FF70FF70FF70FF70FF70FF70FF72A
:102680000FF70FF70FF70FF70FF70FF70FF70FF71A
:102690000FF711EF4110411041108210BFFFFFFFF3
:1026A000FFFFFFFFFFFFFFFFFFFFFFFFFFFFFFFF3A
:1026B000FFFFFFFFFFFFFFFFFFFFFFFFFFFFFFFF2A
:1026C000FFFFFFFFFFFFFFFFFFFFFFFFFFFFFFFF1A
:1026D000FFFFFFFFFFFFFFFFFFFFFFFFFFFFFFFF0A
:1026E000FFFFFFFFFFFFFFFFFFFFFFFFFFFFFFFFFA
:1026F000FFFFFFFFFFFFDFFF41104110620813F7EC
:1027000010F70FF70FF70FF70FF70FF70FF70FF798
:102710000FF70FF70FF70FF70FF70FF70FF70FF789
:102720000FF70FF70FF70FF70FF70FF70FF70FF779
:102730000FF70FF70FF70FF70FF70FF70FF70FF769
:102740000FF70FF70FF70FF70FF70FF70FF70FF759
:102750000FF70FF70FF70FF70FF70FF7F0EE40082F
:10276000411041104108FFFFFFFFFFFFFFFFFFFF88
:10277000FFFFFFFFFFFFFFFFFFFFFFFFFFFFFFFF69
:10278000FFFFFFFFFFFFFFFFFFFFFFFFFFFFFFFF59
:10279000FFFFFFFFFFFFFFFFFFFFFFFFFFFFFFFF49
:1027A000FFFFFFFFFFFFFFFFFFFFFFFFFFFFFFFF39
:1027B000FFFFFFFFFFFFFFFFFFFFFFFFBEF7610807
:1027C00061104008B0E60FF70FF70FF70FF70FF79C
:1027D0000FF70FF70FF70FF70FF70FF70FF70FF7C9
:1027E0000FF70FF70FF70FF70FF70FF70FF70FF7B9
:1027F0000FF70FF70FF70FF70FF70FF70FF70FF7A9
:102800000FF70FF70FF70FF70FF70FF70FF70FF798
:102810000FF70FF70FF70FF70FF70FF70FF70FF788
:102820000FF70FF70FF730F74010410861108210D3
:10283000FFFFFFFFFFFFFFFFFFFFFFFFFFFFFFFFA8
:10284000FFFFFFFFFFFFFFFFFFFFFFFFFFFFFFFF98
:10285000FFFFFFFFFFFFFFFFFFFFFFFFFFFFFFFF88
:10286000FFFFFFFFFFFFFFFFFFFFFFFFFFFFFFFF78
:10287000FFFFFFFFFFFFFFFFFFFFFFFFFFFFFFFF68
:10288000FFFFFFFF610861086108B1E60FF70FF76E
:1028900010F70FF70FF70FF70FF70FF70FF70FF707
:1028A0000FF70FF70FF70FF70FF70FF70FF70FF7F8
:1028B0000FF70FF70FF70FF70FF70FF70FF70FF7E8
:1028C0000FF70FF70FF70FF70FF70FF70FF70FF7D8
:1028D0000FF70FF70FF70FF70FF70FF70FF70FF7C8
:1028E0000FF70FF70FF70FF70FF70FF70FF70FF7B8
:1028F00010F76010610881102C63FFFFFFFFFFFFDE
:10290000FFFFFFFFFFFFFFFFFFFFFFFFFFFFFFFFD7
:10291000FFFFFFFFFFFFFFFFFFFFFFFFFFFFFFFFC7
:10292000FFFFFFFFFFFFFFFFFFFFFFFFFFFFFFFFB7
:10293000FFFFFFFFFFFFFFFFFFFFFFFFFFFFFFFFA7
:10294000FFFFFFFFFFFFFFFFFFFF8210610861082D
:1029500011EF0FF70FF70FF70FF70FF70FF70FF74D
:102960000FF70FF70FF70FF70FF70FF70FF70FF737
:102970000FF70FF70FF70FF70FF70FF70FF70FF727
:102980000FF70FF70FF70FF70FF70FF70FF70FF717
:102990000FF70FF70FF70FF70FF70FF70FF70FF707
:1029A0000FF70FF70FF70FF70FF70FF70FF70FF7F7
:1029B0000FF70FF70FF70FF710F7F0F64010610859
:1029C0006108FFFFFFFFFFFFFFFFFFFFFFFFFFFFAC
:1029D000FFFFFFFFFFFFFFFFFFFFFFFFFFFFFFFF07
:1029E000FFFFFFFFFFFFFFFFFFFFFFFFFFFFFFFFF7
:1029F000FFFFFFFFFFFFFFFFFFFFFFFFFFFFFFFFE7
:102A0000FFFFFFFFFFFFFFFFFFFFFFFFFFFFFFFFD6
:102A10001CE782106210D2E60FF70FF70FF70FF7DF
:102A20000FF70FF70FF70FF70FF70FF70FF70FF776
:102A30000FF70FF70FF70FF70FF70FF70FF70FF766
:102A40000FF70FF70FF70FF70FF70FF70FF70FF756
:102A50000FF70FF70FF70FF70FF70FF70FF70FF746
:102A60000FF70FF70FF70FF70FF70FF70FF70FF736
:102A70000FF70FF70FF70FF70FF70FF70FF70FF726
:102A80000FF70FF711EF400841108210BEF7FFFF5C
:102A9000FFFFFFFFFFFFFFFFFFFFFFFFFFFFFFFF46
:102AA000FFFFFFFFFFFFFFFFFFFFFFFFFFFFFFFF36
:102AB000FFFFFFFFFFFFFFFFFFFFFFFFFFFFFFFF26
:102AC000FFFFFFFFFFFFFFFFFFFFFFFFFFFFFFFF16
:102AD000FFFFFFFFFFFFDFFF41086108CECD0FEFD3
:102AE0000FF70FF70FF70FF70FF70FF70FF70FF7B6
:102AF0000FF70FF70FF70FF70FF70FF70FF70FF7A6
:102B00000FF70FF70FF70FF70FF70FF70FF70FF795
:102B10000FF70FF70FF70FF70FF70FF70FF70FF785
:102B20000FF70FF70FF70FF70FF70FF70FF70FF775
:102B30000FF70FF70FF70FF70FF70FF70FF70FF765
:102B40000FF70FF70FF70FF70FF70FF70FF792E6E3
:102B500060104110484AFFFFFFFFFFFFFFFFFFFF2C
:102B6000FFFFFFFFFFFFFFFFFFFFFFFFFFFFFFFF75
:102B7000FFFFFFFFFFFFFFFFFFFFFFFFFFFFFFFF65
:102B8000FFFFFFFFFFFFFFFFFFFFFFFFFFFFFFFF55
:102B9000FFFFFFFFFFFFFFFFFFFFFFFFFFFFAE7322
:102BA0006108C0180FF710F70FF70FF70FF70FF7BF
:102BB0000FF70FF70FF70FF70FF70FF70FF70FF7E5
:102BC0000FF70FF70FF70FF70FF70FF70FF70FF7D5
:102BD0000FF70FF70FF70FF70FF70FF70FF70FF7C5
:102BE0000FF70FF70FF70FF70FF70FF70FF70FF7B5
:102BF0000FF70FF70FF70FF70FF70FF70FF70FF7A5
:102C00000FF70FF70FF70FF70FF70FF70FF70FF794
:102C10000FF70FF710F70FF7801041104110FFFF6B
:102C2000FFFFFFFFFFFFFFFFFFFFFFFFFFFFFFFFB4
:102C3000FFFFFFFFFFFFFFFFFFFFFFFFFFFFFFFFA4
:102C4000FFFFFFFFFFFFFFFFFFFFFFFFFFFFFFFF94
:102C5000FFFFFFFFFFFFFFFFFFFFFFFFFFFFFFFF84
:102C6000FFFFFFFFDFFF810861100FF710F710F77C
:102C70000FF70FF70FF70FF70FF70FF70FF70FF724
:102C80000FF70FF70FF70FF70FF70FF70FF70FF714
:102C90000FF70FF70FF70FF70FF70FF70FF70FF704
:102CA0000FF70FF70FF70FF70FF70FF70FF70FF7F4
:102CB0000FF70FF70FF70FF70FF70FF70FF70FF7E4
:102CC0000FF70FF70FF70FF70FF70FF70FF70FF7D4
:102CD0000FF70FF70FF70FF70FF70FF70FF70FF7C4
:102CE000F1EE600841107194FFFFFFFFFFFFFFFF4F
:102CF000FFFFFFFFFFFFFFFFFFFFFFFFFFFFFFFFE4
:102D0000FFFFFFFFFFFFFFFFFFFFFFFFFFFFFFFFD3
:102D1000FFFFFFFFFFFFFFFFFFFFFFFFFFFFFFFFC3
:102D2000FFFFFFFFFFFFFFFFFFFFFFFF82106108B4
:102D300010F7F0F60FF710F70FF70FF70FF70FF781
:102D40000FF70FF70FF70FF70FF70FF70FF70FF753
:102D50000FF70FF70FF70FF70FF70FF70FF70FF743
:102D60000FF70FF70FF70FF70FF70FF70FF70FF733
:102D70000FF70FF70FF70FF70FF70FF70FF70FF723
:102D80000FF70FF70FF70FF70FF70FF70FF70FF713
:102D90000FF70FF70FF70FF70FF70FF70FF70FF703
:102DA0000FF70FF70FF70FF710EF60104110400803
:102DB000FFFFFFFFFFFFFFFFFFFFFFFFFFFFFFFF23
:102DC000FFFFFFFFFFFFFFFFFFFFFFFFFFFFFFFF13
:102DD000FFFFFFFFFFFFFFFFFFFFFFFFFFFFFFFF03
:102DE000FFFFFFFFFFFFFFFFFFFFFFFFFFFFFFFFF3
:102DF000FFFFBEF78210413110F70FF70FF70FF703
:102E00000FF70FF70FF70FF70FF70FF70FF70FF792
:102E10000FF70FF70FF70FF70FF70FF70FF70FF782
:102E20000FF70FF70FF70FF70FF70FF70FF70FF772
:102E30000FF70FF70FF70FF70FF70FF70FF70FF762
:102E40000FF70FF70FF70FF70FF70FF70FF70FF752
:102E50000FF70FF70FF70FF70FF70FF70FF70FF742
:102E60000FF70FF70FF70FF70FF70FF70FF70FF732
:102E7000EFF6F0EE62184108BEF7FFFFFFFFFFFF1D
:102E8000FFFFFFFFFFFFFFFFFFFFFFFFFFFFFFFF52
:102E9000FFFFFFFFFFFFFFFFFFFFFFFFFFFFFFFF42
:102EA000FFFFFFFFFFFFFFFFFFFFFFFFFFFFFFFF32
:102EB000FFFFFFFFFFFFFFFFFFFFA3186210F0F609
:102EC000F0F60FF70FF70FF70FF70FF70FF70FF7F2
:102ED0000FF70FF70FF70FF70FF70FF70FF70FF7C2
:102EE0000FF70FF70FF70FF70FF70FF70FF70FF7B2
:102EF0000FF70FF70FF70FF70FF70FF70FF70FF7A2
:102F00000FF70FF70FF70FF70FF70FF70FF70FF791
:102F10000FF70FF70FF70FF70FF70FF70FF70FF781
:102F20000FF70FF70FF70FF70FF70FF70FF70FF771
:102F30000FF70FF70FF70FF70FF70FF7F3E6210073
:102F4000DFFFFFFFFFFFFFFFFFFFFFFFFFFFFFFFB1
:102F5000FFFFFFFFFFFFFFFFFFFFFFFFFFFFFFFF81
:102F6000FFFFFFFFFFFFFFFFFFFFFFFFFFFFFFFF71
:102F7000FFFFFFFFFFFFFFFFFFFFFFFFFFFFFFFF61
:102F8000FFFF81102DADF0F60FF70FF70FF70FF7DA
:102F90000FF70FF70FF70FF70FF70FF7EFF60FF722
:102FA0000FF70FF70FF70FF70FF70FF70FF70FF7F1
:102FB0000FF70FF70FF70FF70FF70FF70FF70FF7E1
:102FC0000FF70FF70FF70FF70FF70FF70FF70FF7D1
:102FD0000FF70FF70FF70FF70FF70FF70FF70FF7C1
:102FE0000FF70FF70FF70FF70FF70FF70FF70FF7B1
:102FF0000FF70FF70FF70FF70FF70FF70FF70FF7A1
:103000000FF70FF70EF7400859CEFFFFFFFFFFFF46
:10301000FFFFFFFFFFFFFFFFFFFFFFFFFFFFFFFFC0
:10302000FFFFFFFFFFFFFFFFFFFFFFFFFFFFFFFFB0
:10303000FFFFFFFFFFFFFFFFFFFFFFFFFFFFFFFFA0
:10304000FFFFFFFFFFFFFFFFAE7381100EEFEFF6F4
:103050000FF70FF70FF70FF70FF70FF70FF70FF740
:103060000FF710F7A98350D6EFF610F752D621319B
:103070006A9C2EF710F70FF70FF70FF70FF70FF700
:103080000FF70FF70FF70FF70FF70FF70FF70FF710
:103090000FF70FF70FF70FF70FF70FF70FF70FF700
:1030A0000FF70FF70FF70FF70FF70FF70FF70FF7F0
:1030B0000FF70FF70FF7F0F60FF70FF70FF70FF700
:1030C0000FF70FF70FF70FF70FF70FF70FF7265A56
:1030D0006108FFFFFFFFFFFFFFFFFFFFFFFFFFFF95
:1030E000FFFFFFFFFFFFFFFFFFFFFFFFFFFFFFFFF0
:1030F000FFFFFFFFFFFFFFFFFFFFFFFFFFFFFFFFE0
:10310000FFFFFFFFFFFFFFFFFFFFFFFFFFFFFFFFCF
:1031100061082229F0F60FF70FF70FF70FF70FF7F7
:103120000FF70FF70FF70FF70FF70FF74131601891
:10313000F3F661106008600861084229F0F60FF7A5
:103140000FF70FF70FF70FF70FF70FF70FF70FF74F
:103150000FF70FF70FF70FF70FF70FF70FF70FF73F
:103160000FF70FF70FF70FF70FF70FF70FF70FF72F
:103170000FF70FF70FF70FF70FF70FF710F7B3E68B
:103180000FF710F70FF70FF70FF70FF70FF70FF70E
:103190000FF70FF7F0F6D1E64108FFFFFFFFFFFF43
:1031A000FFFFFFFFFFFFFFFFFFFFFFFFFFFFFFFF2F
:1031B000FFFFFFFFFFFFFFFFFFFFFFFFFFFFFFFF1F
:1031C000FFFFFFFFFFFFFFFFFFFFFFFFFFFFFFFF0F
:1031D000FFFFFFFFFFFFDFFF620810EFF0F60FF7C2
:1031E0000FF70FF70FF70FF70FF70FF70FF70FF7AF
:1031F0000FF70FF74231211042104110F2E610EFA5
:10320000200861080FF70FF70FF70FF70FF70FF709
:103210000FF70FF70FF70FF70FF70FF70FF70FF77E
:103220000FF70FF70FF70FF710F710F70FF70FF76C
:103230000FF70FF710F70FF70FF70FF70FF70FF75D
:103240000FF70FF78020411030F70FF70FF70FF748
:103250000FF70FF70FF70FF70FF70FF710F710F73C
:1032600042088210FFFFFFFFFFFFFFFFFFFFFFFF8E
:10327000FFFFFFFFFFFFFFFFFFFFFFFFFFFFFFFF5E
:10328000FFFFFFFFFFFFFFFFFFFFFFFFFFFFFFFF4E
:10329000FFFFFFFFFFFFFFFFFFFFFFFFFFFF8210AA
:1032A0004208F0F6F0F60FF70FF70FF70FF70FF7EA
:1032B0000FF70FF70FF70FF70FF70FF76018610809
:1032C0002010CFEE0FF710F7401060082EF70FF721
:1032D0000FF70FF70FF70FF70FF70FF70FF70FF7BE
:1032E0000FF70FF70FF70FF70FF70FF70FF70FF7AE
:1032F00010F710F7801822080108467310F710F72E
:103300000FF70FF70FF70FF70FF732FF40084010D6
:10331000EEEE0FF70FF70FF70FF70FF70FF70FF7A7
:103320000FF70FF710F710F742108210FFFFFFFFA3
:10333000FFFFFFFFFFFFFFFFFFFFFFFFFFFFFFFF9D
:10334000FFFFFFFFFFFFFFFFFFFFFFFFFFFFFFFF8D
:10335000FFFFFFFFFFFFFFFFFFFFFFFFFFFFFFFF7D
:10336000FFFFFFFFFFFF821044520FF70FF70FF729
:103370000FF70FF70FF70FF70FF70FF70FF70FF71D
:103380000FF70FF74108621014EF0FF710F710F75F
:10339000400860100FF70FF70FF70FF70FF70FF751
:1033A0000FF70FF70FF70FF70FF70FF70FF70FF7ED
:1033B0000FF70FF70FF70FF710F7400841086010ED
:1033C000601061086110D1F60FF70FF70FF70FF7D4
:1033D0000FF7B3E6610853F70FF70FF70FF70FF783
:1033E0000FF70FF70FF70FF70FF70FF70FF70FF7AD
:1033F00080186108BFFFFFFFFFFFFFFFFFFFFFFF18
:10340000FFFFFFFFFFFFFFFFFFFFFFFFFFFFFFFFCC
:10341000FFFFFFFFFFFFFFFFFFFFFFFFFFFFFFFFBC
:10342000FFFFFFFFFFFFFFFFFFFFFFFFFFFF610841
:1034300011EF0FF70FF70FF70FF70FF70FF70FF762
:103440000FF70FF70FF70FF7EFF6CCA46010A66297
:10345000F0F60FF710F70FEF600892DE0FF70FF797
:103460000FF70FF70FF70FF70FF70FF70FF70FF72C
:103470000FF70FF70FF70FF70FF70FF70FF70FF71C
:1034800030F76008E34110F70EF7EFD54100400830
:1034900032D6F0F610F70FF7EFF662396108F1F661
:1034A0000FF70FF70FF70FF70FF70FF70FF70FF7EC
:1034B0000FF70FF70FF70FF702526108CB5AFFFF14
:1034C000FFFFFFFFFFFFFFFFFFFFFFFFFFFFFFFF0C
:1034D000FFFFFFFFFFFFFFFFFFFFFFFFFFFFFFFFFC
:1034E000FFFFFFFFFFFFFFFFFFFFFFFFFFFFFFFFEC
:1034F000FFFFFFFF4D6B41080FF70FF70FF70FF7B7
:103500000FF70FF7EEEE11F751D6E66AE349C24125
:1035100047734210611011F710F70FF70FF730CE15
:103520004108EFEE0FF70FF70FF70FF70FF70FF751
:103530000FF70FF70FF70FF70FF70FF70FF70FF75B
:103540000FF70FF70FF70FF70FEF6108AA7B10EFD8
:1035500010F70FF7F2F640104108687B10F70FF7ED
:103560000FF740106108F1F60FF70FF70FF70FF79D
:103570000FF70FF70FF70FF70FF70FF70FF70FF71B
:10358000F1EE6208A210FFFFFFFFFFFFFFFFFFFF4A
:10359000FFFFFFFFFFFFFFFFFFFFFFFFFFFFFFFF3B
:1035A000FFFFFFFFFFFFFFFFFFFFFFFFFFFFFFFF2B
:1035B000FFFFFFFFFFFFFFFFFFFFFFFF821040083D
:1035C000F1F60FF70FF70FF70FF713EF8010410821
:1035D00083106010C020801840104208CFC50FF73C
:1035E0000FF70FF710F74118413110F70FF70FF7EA
:1035F0000FF70FF70FF70FF70FF70FF70FF70FF79B
:103600000FF70FF70FF70FF70FF70FF70FF70FF78A
:103610000EF740082008EFF60FF70FF710F7B1E6A6
:10362000421041108EBD0FF70FF74010410810EF08
:103630000FF70FF7F0F610F710F70FF70FF70FF778
:103640000FF70FF70FF70FF710EF61084108FFFFB3
:10365000FFFFFFFFFFFFFFFFFFFFFFFFFFFFFFFF7A
:10366000FFFFFFFFFFFFFFFFFFFFFFFFFFFFFFFF6A
:10367000FFFFFFFFFFFFFFFFFFFFFFFFFFFFFFFF5A
:10368000FFFFFFFF4108600810F70FF70FF70FF774
:10369000A46241106110B2EE0FF711F710F710F7A6
:1036A0000FF7EFF60FF70FF70FF70FF730FF611077
:1036B000D1EE0FF70FF70FF70FF70FF70FF70FF721
:1036C0000FF70FF70FF70FF70FF70FF70FF70FF7CA
:1036D0000FF70FF70FF70FF710F7F3E64210F2EEC0
:1036E0000FF70FF710F70FEFCDA441086208801015
:1036F000641862106010A318621041106039EFEE78
:1037000010F70FF70FF70FF70FF70FF70FF70FF788
:1037100010F741082000DFFFFFFFFFFFFFFFFFFF63
:10372000FFFFFFFFFFFFFFFFFFFFFFFFFFFFFFFFA9
:10373000FFFFFFFFFFFFFFFFFFFFFFFFFFFFFFFF99
:10374000FFFFFFFFFFFFFFFFFFFFFFFF61086110AB
:103750000FF7F0F60FF72EB521086110F0EE0FF716
:103760000FF70FF70FF70FF70FF70FF70FF70FF729
:103770000FF70FF78018A0200EF742396108CEA48A
:103780000FF70FF70FF70FF70FF70FF70FF70FF709
:103790000FF70FF70FF70FF70FF710F70FEFEB8B90
:1037A000ABA4EEEE6010C1200EF70FF70FF70FF786
:1037B0000FF7A56A61084108244A10F70FFFEFF6DA
:1037C000D2EE801862084108845A2FF7F0F60FF7FE
:1037D0000FF70FF70FF70FF70FF741104110FFFF2B
:1037E000FFFFFFFFFFFFFFFFFFFFFFFFFFFFFFFFE9
:1037F000FFFFFFFFFFFFFFFFFFFFFFFFFFFFFFFFD9
:10380000FFFFFFFFFFFFFFFFFFFFFFFFFFFFFFFFC8
:10381000FFFFFFFF410841100EF710F7EFEE6008C1
:10382000600810F70FF70FF70FF70FF70FF70FF705
:103830000FF70FF70FF70FF70FF712F7400850F7D2
:10384000EEF62108411062100FF70FF70FF70FF790
:103850000FF70FF70FF70FF70FF70FF70FF70FF738
:103860000FF70FF7266B61086108B4DE30F74208E6
:10387000B2EE10EF0FF70FF70FF710F710F7F0F6A3
:10388000EFF60FF70FF70FF70FF70FF7F1EE8218BC
:10389000610840080EF710F70FF70FF70FF70FF753
:1038A0000FF741104110BADEFFFFFFFFFFFFFFFFE0
:1038B000FFFFFFFFFFFFFFFFFFFFFFFFFFFFFFFF18
:1038C000FFFFFFFFFFFFFFFFFFFFFFFFFFFFFFFF08
:1038D000FFFFFFFFFFFFFFFFFFFFFFFF410841105A
:1038E0000FF710F760186108286B0FF70FF70FF745
:1038F0000FF70FF70FF70FF70FF70FF70FF70FF798
:103900000FF72108000030F7CFF661104110420890
:10391000EFF60FF70FF70FF70FF70FF70FF70FF798
:103920000FF70FF70FF70FF70FF7F0F640106108DA
:103930006108C6620FF7066B40080FF70FF70FF725
:103940000FF710F710F70FF70FF70FF70FF70FF745
:103950000FF70FF70FF70EF74010620860100FF720
:103960000FF70FF70FF70FF70FF74010411008424E
:10397000FFFFFFFFFFFFFFFFFFFFFFFFFFFFFFFF57
:10398000FFFFFFFFFFFFFFFFFFFFFFFFFFFFFFFF47
:10399000FFFFFFFFFFFFFFFFFFFFFFFFFFFFFFFF37
:1039A000FFFFFFFF6108411010F7AFEE4210410822
:1039B000EFF6EFF60FF70FF70FF70FF70FF70FF719
:1039C0000FF70FF70FF70FF710F72210410840100D
:1039D000401062104110821812EF0EF7F0F610F747
:1039E0000FF70FF70EF70FF70FF7F1F60FF70FF7C7
:1039F0000FF7F0F64010610860080B8C0FF7EFEE40
:103A00006210EA8B0FF70FF70FF70FF70FF70FF7AB
:103A10000FF70FF70FF70FF70FF70FF70FF70FF776
:103A20000FF7421061088DC50FF70FF70FF70FF76B
:103A30000FF7601061086210FFFFFFFFFFFFFFFF3D
:103A4000FFFFFFFFFFFFFFFFFFFFFFFFFFFFFFFF86
:103A5000FFFFFFFFFFFFFFFFFFFFFFFFFFFFFFFF76
:103A6000FFFFFFFFFFFFFFFFFFFFFFFFCF7B4110C7
:103A70008010EFEE4108401010F70FF70FF70FF727
:103A80000FF70FF70FF70FF70FF70FF70FF70FF706
:103A900010F710F733F70029401040106110601044
:103AA00061086108877B92DEA2418018611862106C
:103AB0006010AA83F0F60FF70FF7F0F610D6610842
:103AC000410833EF11F7F2F616EF631053DE0FF7EC
:103AD0000FF70FF70FF70FF70FF70FF70FF70FF7B6
:103AE0000FF70FF70FF70FF70FF712EF61104108FD
:103AF0000FF70FF70FF70FF70FF760106108410886
:103B0000FFFFFFFFFFFFFFFFFFFFFFFFFFFFFFFFC5
:103B1000FFFFFFFFFFFFFFFFFFFFFFFFFFFFFFFFB5
:103B2000FFFFFFFFFFFFFFFFFFFFFFFFFFFFFFFFA5
:103B3000FFFFFFFFDFFF41108310254A611080184F
:103B40000FF70FF70FF70FF70FF70FF70FF70FF745
:103B50000FF70FF70FF70FF70FF7EFF60FF7EFF677
:103B60002FF72FF70FF7EFF611EF477342104110C1
:103B700041104110411041104110411061100FF7E8
:103B80000FF7F0F6A55A21088208410820084110D5
:103B9000411041084210EDB40FF70FF70FF70FF780
:103BA0000FF70FF70FF70FF70FF70FF70FF70FF7E5
:103BB0000FF70FEF610841080CAD10F70FF70FF783
:103BC0000FF7611061084108FFFFFFFFFFFFFFFFD4
:103BD000FFFFFFFFFFFFFFFFFFFFFFFFFFFFFFFFF5
:103BE000FFFFFFFFFFFFFFFFFFFFFFFFFFFFFFFFE5
:103BF000FFFFFFFFFFFFFFFFFFFFFFFFFFFF59CEAC
:103C0000410861084008C0200FF70FF70FF70FF7C2
:103C10000FF70FF70FF70FF70FF70FF70FF70FF774
:103C20000FF70FF7EFF6F0F60FF70FF710F710F7A3
:103C30000FF7EFF661106108610841104110411063
:103C4000411041104110287311EF41106118B3E683
:103C5000F0F60FF72FF70FF710EFE98B6018F0F67B
:103C60000FF70FF70FF70FF70FF70FF70FF70FF724
:103C70000FF70FF70FF70FF70FF710F76010610846
:103C8000601015F70FF7F1F60FF761106108C31810
:103C9000FFFFFFFFFFFFFFFFFFFFFFFFFFFFFFFF34
:103CA000FFFFFFFFFFFFFFFFFFFFFFFFFFFFFFFF24
:103CB000FFFFFFFFFFFFFFFFFFFFFFFFFFFFFFFF14
:103CC000FFFFFFFFFFFFFFFF5DEF41084108467365
:103CD0000FF70FF70FF70FF70FF70FF70FF70FF7B4
:103CE0000FF70FF70FF70FF70FF70FF7F2EE13EFCE
:103CF00032EF31EF31EFF0E611E7200841106108B3
:103D00006108411041104110411041104110421012
:103D10004108211010F70FF70FF70FF70FF70FF704
:103D20000FF70EF70FF70FF70FF70FF70FF70FF764
:103D30000FF70FF70FF70FF70FF70FF70FF70FF753
:103D40000FF70FF771DE400861084108200811F7EE
:103D500011F76108610896B5FFFFFFFFFFFFFFFF46
:103D6000FFFFFFFFFFFFFFFFFFFFFFFFFFFFFFFF63
:103D7000FFFFFFFFFFFFFFFFFFFFFFFFFFFFFFFF53
:103D8000FFFFFFFFFFFFFFFFFFFFFFFFFFFFFFFF43
:103D900044212108801032F70FF70FF70FF70FF7C4
:103DA0000FF70FF70FF70FF70FF70FF70FF70FF7E3
:103DB0000FF70FEF411041084108611061106110C9
:103DC0004108611041104110411041104110411053
:103DD0004110411041106008401061100FFFEFF6D4
:103DE0000FF70FF70FF70FF70FF70FF70FF70FF7A3
:103DF0000FF70FF70FF70FF70FF70FF70FF70FF793
:103E00000FF70FF70FF70FF70FF70FF70FF7F1E6B1
:103E100040104110600841104010610861089EF791
:103E2000FFFFFFFFFFFFFFFFFFFFFFFFFFFFFFFFA2
:103E3000FFFFFFFFFFFFFFFFFFFFFFFFFFFFFFFF92
:103E4000FFFFFFFFFFFFFFFFFFFFFFFFFFFFFFFF82
:103E5000FFFFFFFFFFFF4108000012F710F70FF709
:103E60000FF70FF70FF70FF70FF70FF70FF70FF722
:103E70000FF70FF70FF70FF70FF712F7601060103B
:103E8000B2E6F2E6F2EEF2EEF1EE00084108411081
:103E9000411041104110411041104110411040109B
:103EA00023106010201031F710F70FF70FF70FF7FE
:103EB0000FF70FF70FF70FF70FF70FF70FF70FF7D2
:103EC0000FF70FF70FF70FF70FF70FF70FF70FF7C2
:103ED0000FF70FF70FF710F70FF712F760184110F1
:103EE00061084108A218FFFFFFFFFFFFFFFFFFFF70
:103EF000FFFFFFFFFFFFFFFFFFFFFFFFFFFFFFFFD2
:103F0000FFFFFFFFFFFFFFFFFFFFFFFFFFFFFFFFC1
:103F1000FFFFFFFFFFFFFFFFFFFFFFFFA2104008B3
:103F2000D0EEEFF60FF70FF70FF70FF70FF70FF7CA
:103F30000FF70FF70FF70FF70FF70FF70FF70FF751
:103F40000FF7C66A4010B1E60FF70FF70FF70FF73C
:103F50000FF70EF7C541611061086108610861083B
:103F600041080129B2E6F1EE2DAD41106108421081
:103F7000C02071DE0FF70EF70FF70FF70FF70FF7EF
:103F800010F70FF70FF70FF70FF70FF70FF70FF700
:103F90000FF70FF70FF70FF70FF70FF70FF70FF7F1
:103FA0000FF70FF70EF7EECD210841089EF7FFFF40
:103FB000FFFFFFFFFFFFFFFFFFFFFFFFFFFFFFFF11
:103FC000FFFFFFFFFFFFFFFFFFFFFFFFFFFFFFFF01
:103FD000FFFFFFFFFFFFFFFFFFFFFFFFFFFFFFFFF1
:103FE000FFFF8A52621011EFEFF610F70FF70FF78D
:103FF0000FF70FF70FF70FF70FF70FF70FF70FF791
:104000000FF70FF70FF70FF70FF7611060100EF7AC
:104010000FF70FF70FF70FEF0FEF0FF7F0EE0FFFA0
:104020002FF7EEEE0FF70EF70EF7EFFE0EF70FF786
:10403000F0F611EFA98320106110611062082008CA
:104040004010C02051D6A02810F70FF70FF70FF738
:104050000FF70FF70FF70FF70FF70FF70FF70FF730
:104060000FF70FF70FF70FF70FF70FF70FF70FF720
:1040700033EF41106210DFFFFFFFFFFFFFFFFFFF85
:10408000FFFFFFFFFFFFFFFFFFFFFFFFFFFFFFFF40
:10409000FFFFFFFFFFFFFFFFFFFFFFFFFFFFFFFF30
:1040A000FFFFFFFFFFFFFFFFDFFF4108AEC50FF778
:1040B0000FF70FF70FF70FF70FF70FF70FF70FF7D0
:1040C0000FF70FF70FF70FF70FF70FF70FF70FF7C0
:1040D0006A9C421011EFF0F60FF70FF70FF70FF78A
:1040E0000FF70FF70FF70FF70FF70FF70FF70FF7A0
:1040F0000FF70FF70FF70FF70FF70FF70FF70FF790
:104100000FF7F1EEE98B6010401042104008600894
:10411000865A0FF70FF70FF70FF70FF70FF70FF795
:104120000FF70FF70FF70FF70FF70FF70FF70FF75F
:104130000FF70FF70FF70FF70FF711EF42104110BE
:10414000BFFFFFFFFFFFFFFFFFFFFFFFFFFFFFFFBF
:10415000FFFFFFFFFFFFFFFFFFFFFFFFFFFFFFFF6F
:10416000FFFFFFFFFFFFFFFFFFFFFFFFFFFFFFFF5F
:104170006108601010F710F70FF70FF70FF70FF740
:104180000FF70FF70FF70FF70FF70FF70FF70FF7FF
:104190000FF70FF70FF7A88360082B8C0FF70FF7B7
:1041A0000FF70FF70FF70FF70FF70FF710F70FF7DE
:1041B0000FF70FF70FF70FF710F72EF7F0F60FF7CF
:1041C0000FF70FF70FF70FF70FF70FF70FF70FF7BF
:1041D0000FF7F0F60FF74210421830FF0FF70FF706
:1041E0000FF70FF70FF70FF70FF70FF70FF70FF79F
:1041F0000FF70FF70FF70FF70FF70FF70FF70FF78F
:104200000FF70FF7D2E641106110FFFFFFFFFFFF2E
:10421000FFFFFFFFFFFFFFFFFFFFFFFFFFFFFFFFAE
:10422000FFFFFFFFFFFFFFFFFFFFFFFFFFFFFFFF9E
:10423000FFFFFFFFFFFF75AD610871D610F710F7A4
:104240000FF70FF70FF70FF70FF70FF70FF70FF73E
:104250000FF70FF70FF70FF712F792DEA2186108AA
:10426000096B0FEF0FF70FF70FF70FF70FF70FF7B8
:104270000FF70FF7CFEEF0F60FF70FF70FF70FF777
:1042800051FF6010410810F70FF70FF70FF70FF706
:104290000FF70FF70FF70FF70FF70FF70FF7A662EC
:1042A0006010F4EE0FF70FF70FF70FF70FF70FF798
:1042B0000FF70FF70FF70FF70FF70FF70FF70FF7CE
:1042C0000FF70FF70FF70FF70FF70FF7EEF6801056
:1042D00041106110FFFFFFFFFFFFFFFFFFFFFFFF28
:1042E000FFFFFFFFFFFFFFFFFFFFFFFFFFFFFFFFDE
:1042F000FFFFFFFFFFFFFFFFFFFFFFFFFFFF61105B
:10430000411030F7F0F60FF70FF70FF70FF70FF731
:104310000FF70FF70FF70FF70FF70FF70FF710F76C
:10432000410841088218F4E6EFEEF0F60FF70FF7B8
:104330000FF70FF70FF70FF70FF70FF76018601869
:10434000F2EE0FF72DF710EF4010601041100FF74D
:104350000FF70FF70FF70FF70FF70FF70FF70FF72D
:104360000FF70FF70FF711FF6010610831D6EEEE6F
:104370000FF70FF70FF70FF7F0F6F0F60FF70FF74D
:104380000FF70FF70FF70FF70FF70FF70FF70FF7FD
:104390000FF70FF70FF7D4EE41084110DFFFFFFFD3
:1043A000FFFFFFFFFFFFFFFFFFFFFFFFFFFFFFFF1D
:1043B000FFFFFFFFFFFFFFFFFFFFFFFFFFFFFFFF0D
:1043C000FFFFFFFF9EF74110C018F0F610F70FF740
:1043D0000FF70FF70FF70FF70FF70FF70FF70FF7AD
:1043E0000FF70FF70FF70FF740106108401012EFAB
:1043F00010F7EFF60FF70FF70FF70FF70FF70FF7AD
:104400000FF710F7D3E641104110601080106010D4
:104410006010611030F70FF70FF70FF70FF70FF776
:104420000FF70FF70FF70FF70FF70FF70FF710EF63
:1044300031FF6010401040086110400840084008FB
:10444000A0200FF70FF70FF70FF70FF70FF70FF782
:104450000FF70FF70FF70FF70FF70FF70FF70FF72C
:10446000400841100421FFFFFFFFFFFFFFFFFFFF98
:10447000FFFFFFFFFFFFFFFFFFFFFFFFFFFFFFFF4C
:10448000FFFFFFFFFFFFFFFFFFFFFFFFC3186110EC
:10449000F2F610F70FF70FF70FF70FF70FF70FF709
:1044A0000FF70FF70FF70FF70FF70FF70FF710F7DB
:1044B000CFEE6010610841104EF70FF70FF70FF7BE
:1044C0000FF70FF70FF70FF70FF710F710F710F7B9
:1044D0004EBD801860188018D3E60EF7EFEE0FF788
:1044E0000FF70FF70FF70FF70FF70FF70FF70FF79C
:1044F0000FF70FF70FF70FF70FF70FF7F3F660103F
:104500006108610860106110411010F70FF70FF794
:104510000FF70FF70FF70FF70FF70FF70FF70FF76B
:104520000FF70FF70FF710F70EAD41104108FFFF1F
:10453000FFFFFFFFFFFFFFFFFFFFFFFFFFFFFFFF8B
:10454000FFFFFFFFFFFFFFFFFFFFFFFFFFFFFFFF7B
:10455000FFFFFFFF4108411010F70FF70FF70FF7AC
:104560000FF70FF70FF70FF70FF70FF70FF70FF71B
:104570000FF70FF70FF70FF70FF730F74010411055
:10458000885A0FF70FF70FF70FF70FF70FF70FF71F
:104590000FF70FF70FF70FF70FF70FF70FF70FF7EB
:1045A0000FF70FF70FF70FF70FF70FF70FF70FF7DB
:1045B0000FF70FF70FF70FF70FF70FF70FF70FF7CB
:1045C0000FF70FF70FF70FF710F7F2F66FC5A118F7
:1045D000A018F0F60FF70FF70FF70FF70FF70FF719
:1045E0000FF70FF70FF70FF70FF70FF70FF70FF79B
:1045F000EFEE22084110BADEFFFFFFFFFFFFFFFFD3
:10460000FFFFFFFFFFFFFFFFFFFFFFFFFFFFFFFFBA
:10461000FFFFFFFFFFFFFFFFFFFFFFFF61106210C3
:1046200010F70FF70FF70FF70FF70FF70FF70FF759
:104630000FF70FF70FF70FF70FF70FF70FF70FF74A
:104640000FF70FF7B2EE401041100FF70FF70FF70B
:104650000FF70FF70FF70FF70FF70FF70FF70FF72A
:104660000FF70FF70FF70FF70FF70FF70FF70FF71A
:104670000FF70FF70FF70FF70FF70FF70FF70FF70A
:104680000FF70FF70FF70FF70FF70FF70FF70FF7FA
:104690000FF70FF70FF7411091DE0FF70FF70FF736
:1046A0000FF70FF70FF70FF70FF70FF70FF70FF7DA
:1046B0000FF70FF70FF70FF710F780186008410892
:1046C000FFFFFFFFFFFFFFFFFFFFFFFFFFFFFFFFFA
:1046D000FFFFFFFFFFFFFFFFFFFFFFFFFFFFFFFFEA
:1046E000FFFFFFFF6108411010F70FF70FF70FF7FB
:1046F0000FF70FF70FF70FF70FF70FF70FF70FF78A
:104700000FF70FF70FF70FF70FF710F710F761100C
:104710004110CEBD0FF70FF70FF70FF70FF70FF799
:104720000FF70FF70FF70FF70FF70FF70FF70FF759
:104730000FF70FF70FF70FF70FF70FF70FF70FF749
:104740000FF70FF70FF70FF70FF70FF70FF70FF739
:104750000FF70FF70FF70FF70FF70FF72FF74210BD
:10476000F0EE0FF70FF70FF70FF70FF70FF70FF741
:104770000FF70FF70FF70FF70FF70FF70FF70FF709
:104780000FF7F1EE61082008FFFFFFFFFFFFFFFFBB
:10479000FFFFFFFFFFFFFFFFFFFFFFFFFFFFFFFF29
:1047A000FFFFFFFFFFFFFFFFFFFFFFFF610861103B
:1047B00010F70FF70FF70FF70FF70FF70FF70FF7C8
:1047C0000FF70FF70FF70FF70FF70FF70FF70FF7B9
:1047D0000FF710F710F7D2E660084010EFF60FF76A
:1047E0000FF70FF70FF70FF70FF70FF70FF70FF799
:1047F0000FF70FF70FF70FF70FF70FF70FF70FF789
:104800000FF70FF70FF70FF70FF70FF70FF70FF778
:104810000FF70FF70FF70FF70FF70FF70FF70FF768
:104820000FF70FF791E641080FF70FF70FF70FF7A4
:104830000FF70FF70FF70FF70FF70FF70FF70FF748
:104840000FF70FF70FF70FF70FF70FF741104108AA
:10485000DFFFFFFFFFFFFFFFFFFFFFFFFFFFFFFF88
:10486000FFFFFFFFFFFFFFFFFFFFFFFFFFFFFFFF58
:10487000FFFFFFFF4108601010F70FF70FF70FF76A
:104880000FF70FF70FF70FF70FF70FF70FF70FF7F8
:104890000FF70FF70FF70FF70FF70FF70FF710F7E7
:1048A000420840100FF70FF70FF70FF70FF70FF74A
:1048B0000FF70FF70FF70FF70FF70FF70FF70FF7C8
:1048C0000FF70FF70FF70FF70FF70FF70FF70FF7B8
:1048D0000FF70FF70FF70FF70FF70FF70FF70FF7A8
:1048E0000FF70FF70FF70FF70FF70FF7AA8340082F
:1048F0002EF70FF70FF70FF70FF70FF70FF70FF769
:104900000FF70FF70FF70FF70FF70FF70FF70FF777
:104910000FF710F7E86A4110A631FFFFFFFFFFFF16
:10492000FFFFFFFFFFFFFFFFFFFFFFFFFFFFFFFF97
:10493000FFFFFFFFFFFFFFFFFFFFFFFF61084018C2
:1049400010F70FF70FF70FF70FF70FF70FF70FF736
:104950000FF70FF70FF70FF70FF70FF70FF70FF727
:104960000FF70FF70FF7F0F6611840080FF70FF782
:104970000FF70FF70FF70FF70FF70FF70FF70FF707
:104980000FF70FF70FF70FF70FF70FF70FF70FF7F7
:104990000FF70FF70FF70FF70FF70FF70FF70FF7E7
:1049A0000FF70FF70FF70FF70FF70FF70FF70FF7D7
:1049B0000FF70FF7802041100EF70FF70FF70FF7E3
:1049C0000FF70FF70FF70FF70FF70FF70FF70FF7B7
:1049D0000FF70FF70FF70FF70FF7F0F613EF411080
:1049E0006108FFFFFFFFFFFFFFFFFFFFFFFFFFFF6C
:1049F000FFFFFFFFFFFFFFFFFFFFFFFFFFFFFFFFC7
:104A0000FFFFFFFF4108601810F70FF70FF70FF7D0
:104A10000FF70FF70FF70FF70FF70FF70FF70FF766
:104A20000FF70FF70FF70FF70FF70FF70FF710F755
:104A3000A983400810F70FF70FF70FF70FF70FF7DD
:104A40000FF70FF70FF70FF70FF70FF70FF70FF736
:104A50000FF70FF70FF70FF70FF70FF70FF70FF726
:104A60000FF70FF70FF70FF70FF70FF70FF70FF716
:104A70000FF70FF70FF70FF710F710F7201041108F
:104A80000FF70FF70FF70FF70FF70FF70FF70FF7F6
:104A90000FF70FF70FF70FF70FF70FF70FF70FF7E6
:104AA0000FF70FF7EFEE41106110FFFFFFFFFFFF61
:104AB000FFFFFFFFFFFFFFFFFFFFFFFFFFFFFFFF06
:104AC000FFFFFFFFFFFFFFFFFFFFFFFF6108002960
:104AD000F0F60FF70FF70FF70FF70FF70FF70FF7C6
:104AE0000FF70FF70FF70FF70FF70FF70FF70FF796
:104AF0000FF70FF70FF70FF790DE410810F70FF7DA
:104B00000FF70FF70FF70FF70FF70FF70FF70FF775
:104B10000FF70FF70FF70FF70FF70FF70FF70FF765
:104B20000FF70FF70FF70FF70FF70FF70FF70FF755
:104B30000FF70FF70FF70FF70FF70FF70FF70FF745
:104B40000FF7F0F6601040080FF70FF70FF70FF7A9
:104B50000FF70FF70FF70FF70FF70FF70FF70FF725
:104B60000FF70FF70FF70FF70FF70FF710F74110C9
:104B70004008FFFFFFFFFFFFFFFFFFFFFFFFFFFFFB
:104B8000FFFFFFFFFFFFFFFFFFFFFFFFFFFFFFFF35
:104B9000FFFFFFFF41080029F0F60FF70FF70FF7AF
:104BA0000FF70FF70FF70FF70FF70FF70FF70FF7D5
:104BB0000FF70FF70FF70FF70FF70FF70FF70FF7C5
:104BC000D1E6610810F70FF70FF70FF70FF70FF7A0
:104BD0000FF70FF70FF70FF70FF70FF70FF70FF7A5
:104BE0000FF70FF70FF70FF70FF70FF70FF70FF795
:104BF0000FF70FF70FF70FF70FF70FF70FF70FF785
:104C00000FF70FF70FF70FF70FF732F7601041109C
:104C10000FF710F70FF70FF70FF70FF70FF70FF763
:104C20000FF70FF70FF70FF70FF70FF70FF70FF754
:104C30000FF70FF70FF740106110FFFFFFFFFFFFA7
:104C4000FFFFFFFFFFFFFFFFFFFFFFFFFFFFFFFF74
:104C5000FFFFFFFFFFFFFFFFFFFFFFFF4108801087
:104C6000EFF60FF70FF70FF70FF70FF70FF70FF735
:104C70000FF70FF70FF70FF70FF70FF70FF70FF704
:104C80000FF70FF70FF7F0F630D640100FF70FF7CA
:104C90000FF70FF70FF70FF70FF70FF70FF70FF7E4
:104CA0000FF70FF70FF70FF70FF70FF70FF70FF7D4
:104CB0000FF70FF70FF70FF70FF70FF70FF70FF7C4
:104CC0000FF70FF70FF70FF70FF710F710F72EF793
:104CD000AB9C20084110411010F70FF70FF70FF7AA
:104CE0000FF70FF70FF70FF70FF70FF70FF70FF794
:104CF0000FF70FF70FF70FF70FF70FF70FF760101A
:104D00006110FFFFFFFFFFFFFFFFFFFFFFFFFFFF40
:104D1000FFFFFFFFFFFFFFFFFFFFFFFFFFFFFFFFA3
:104D2000FFFFFFFF61106010F0F60FF70FF70FF7AE
:104D30000FF70FF70FF70FF70FF70FF70FF70FF743
:104D40000FF70FF70FF70FF70FF70FF70FF710F732
:104D50006020865A0FF70FF70FF70FF70FF70FF7CF
:104D60000FF70FF70FF70FF70FF70FF70FF70FF713
:104D70000FF70FF70FF70FF70FF70FF70FF70FF703
:104D80000FF70FF70FF70FF70FF70FF70FF70FF7F3
:104D90000FF710F7F1F6401041104110411041108B
:104DA0008CA410F70FF70FF70FF70FF70FF70FF7A8
:104DB0000FF70FF70FF70FF70FF70FF70FF70FF7C3
:104DC0000FF70FF7EFF660106210FFFFFFFFFFFF16
:104DD000FFFFFFFFFFFFFFFFFFFFFFFFFFFFFFFFE3
:104DE000FFFFFFFFFFFFFFFFFFFFFFFFB39C200060
:104DF000F0F60FF70FF70FF70FF70FF70FF70FF7A3
:104E00000FF70FF70FF70FF70FF70FF70FF70FF772
:104E10000FF70FF710F70FF7200842104308B3EE13
:104E20000FF710FF0FF70FF70FF70FF70FF70FF749
:104E30000FF70FF70FF70FF70FF70FF70FF70FF742
:104E40000FF70FF70FF70FF70FF70FF70FF70FF732
:104E50000FF70FF7EEF60EF793E6401061106108BA
:104E60004108024ACEC56010401010F70FF70FF747
:104E70000FF70FF70FF70FF70FF70FF70FF70FF702
:104E80000FF70FF70FF70FF70FF70FF7EFF64010C9
:104E90000000FFFFFFFFFFFFFFFFFFFFFFFFFFFF20
:104EA000FFFFFFFFFFFFFFFFFFFFFFFFFFFFFFFF12
:104EB000FFFFFFFFFFFF621010F70FF70FF70FF76D
:104EC0000FF70FF70FF70FF70FF70FF70FF70FF7B2
:104ED0000FF70FF70FF70FF70FF70EF70FF7D3EEE8
:104EE0004008F2E64218411041104231D2E6EEEE9F
:104EF0000FF70FEF0FF70FF70FF70FF70FEF0FEF9A
:104F00000FF70FF710F70FF70FF70FF70FF70FF770
:104F1000EFF60FF7EFF6F0F6F1EE48734110620886
:104F2000411041104008E220EFF6EFF610EF42107A
:104F3000420810F710F70FF70FF70FF70FF70FF7FB
:104F40000FF70FF70FF70FF70FF70FF70FF70FF731
:104F50000FF70FF7EFF64010C318FFFFFFFFFFFF3B
:104F6000FFFFFFFFFFFFFFFFFFFFFFFFFFFFFFFF51
:104F7000FFFFFFFFFFFFFFFFFFFFFFFFFFFF4208F5
:104F800032F70FF70FF70FF70FF70FF70FF70FF7CE
:104F90000FF70FF70FF70FF70FF70FF70FF70FF7E1
:104FA0000FF70FF710FF611014E70FF710EF72D62D
:104FB00081186008601041082010024AF3EE31EFBA
:104FC00051FF51FFEFF6F0F60EEF30F7F2EEB2E6DA
:104FD0006A9CC2416018601860184010421043106B
:104FE00061086108411042086010EB8BEFEE2FF76B
:104FF00010F70FF70FF7411061100FD610F70FF7EA
:105000000FF70FF70FF70FF70FF70FF70FF70FF770
:105010000FF70FF70FF70FF70FF70FF710F7421013
:1050200055B5FFFFFFFFFFFFFFFFFFFFFFFFFFFF84
:10503000FFFFFFFFFFFFFFFFFFFFFFFFFFFFFFFF80
:10504000FFFFFFFFFFFF610882410FF70FF70FF728
:105050000FF70FF70FF70FF70FF70FF70FF70FF720
:105060000FF70FF70FF70FF710F7EEEEA34142100F
:105070000FEF0FF710F710F7F0F610F711F715EF25
:1050800082394010411841084210411061106110EE
:1050900060106010601060106110411041106110CC
:1050A000601060106108600841106010A87B11EF6B
:1050B0000FF70FF70FF70FF70FF70FF70FF7601056
:1050C000411060180FF70FF70FF70FF70FF70FF7F3
:1050D0000FF70FF70FF70FF70FF70FF70FF70FF7A0
:1050E0000FF70FF70FF76110FFFFFFFFFFFFFFFF45
:1050F000FFFFFFFFFFFFFFFFFFFFFFFFFFFFFFFFC0
:10510000FFFFFFFFFFFFFFFFFFFFFFFFFFFFA631D6
:1051100040080EF70FF70FF70FF70FF70FF70FF71E
:105120000FF70FF70FF70FF70FF70FF70FF70FF74F
:1051300010F7C66A21100FB510F70FF710F710F728
:10514000F0F6F0F60FF70FF70FF70FF7F0F6EFF6B0
:105150000FF7F0EEF0EED2EEEECD6B9C865A00210A
:1051600080108010E120044AA9830DADD2EEF0F644
:10517000EFEEEFF60FF70FF72FEF0FF70FF70FF731
:105180000FF70FF7F0F6A120411042100FF70FF7BD
:105190000FF70FF70FF70FF70FF70FF70FF70FF7DF
:1051A0000FF70FF70FF70FF70FF70FF7F0F662088B
:1051B000FFFFFFFFFFFFFFFFFFFFFFFFFFFFFFFFFF
:1051C000FFFFFFFFFFFFFFFFFFFFFFFFFFFFFFFFEF
:1051D000FFFFFFFFFFFFDFFF2108D1EE0FF70FF703
:1051E0000FF70FF70FF70FF70FF70FF70FF70FF78F
:1051F0000FF70FF70FF70FF710D6411041104FF7C9
:105200000FF70FF70FF70FF70FF70FF70FF70FF76E
:105210000FF70FF70FF70FF70FF70FF70FF70FF75E
:1052200010F7F0F6F0F60FF70EEF0FF72FF710F775
:1052300010F710F70FF70FF70FF70FF70FF70FF73C
:105240000FF70FF70FF70FF70FF70FF710F7F1EE54
:1052500061106210F2EE0FF70FF70FF70FF70FF76D
:105260000FF70FF70FF70FF70FF70FF70FF70FF70E
:105270000FF710F74EBD8110FFFFFFFFFFFFFFFF8D
:10528000FFFFFFFFFFFFFFFFFFFFFFFFFFFFFFFF2E
:10529000FFFFFFFFFFFFFFFFFFFFFFFFFFFFDFFF3E
:1052A000410880100FF70FF70FF70FF70FF70FF701
:1052B0000FF70FF70FF70FF70FF70FF70FF710F7BD
:1052C0004FBD421032F70FF70FF70FF70FF70FF739
:1052D0000FF70FF70FF70FF70FF70FF70FF70FF79E
:1052E0000FF70FF70FF70FF70FF70FF70FF70FF78E
:1052F0000FF70FF70FF70FF70FF70FF70FF70FF77E
:105300000FF70FF70FF70FF70FF70FF70FF70FF76D
:105310000FF70FF710F710F742104210801810F730
:1053200010F70FF70FF70FF70FF70FF70FF70FF74C
:105330000FF70FF70FF70FF70FF70FF76018410888
:10534000FFFFFFFFFFFFFFFFFFFFFFFFFFFFFFFF6D
:10535000FFFFFFFFFFFFFFFFFFFFFFFFFFFFFFFF5D
:10536000FFFFFFFFFFFFFFFF0842420833F70FF781
:105370000FF70FF70FF70FF70FF70FF70FF70FF7FD
:105380000FF70FF70FF710F70FF710F7F0F60FF70B
:105390000FF70FF70FF70FF70FF70FF70FF70FF7DD
:1053A0000FF70FF70FF70FF70FF70FF70FF70FF7CD
:1053B0000FF70FF70FF70FF70FF70FF70FF70FF7BD
:1053C0000FF70FF70FF70FF70FF70FF70FF70FF7AD
:1053D0000FF70FF70FF70FF70FF70FF70FF70FF79D
:1053E000A01841104110F0F610F70FF70FF70FF764
:1053F0000FF70FF70FF70FF70FF70FF70FF70FF77D
:105400000FF710F741086108FFFFFFFFFFFFFFFFE5
:10541000FFFFFFFFFFFFFFFFFFFFFFFFFFFFFFFF9C
:10542000FFFFFFFFFFFFFFFFFFFFFFFFFFFFFFFF8C
:10543000BFFF41084210EFF610F710F70FF70FF714
:105440000FF70FF70FF70FF70FF70FF70FF70FF72C
:105450000FF70FF70FF70FF70FF70FF70FF70FF71C
:105460000FF70FF70FF70FF70FF70FF70FF70FF70C
:105470000FF70FF70FF70FF70FF70FF70FF70FF7FC
:105480000FF70FF70FF70FF70FF70FF70FF70FF7EC
:105490000FF70FF70FF70FF70FF70FF70FF70FF7DC
:1054A0000FF70FF70FF70FF7F3F6420841100FF75A
:1054B0000FF70FF70FF70FF70FF70FF70FF70FF7BC
:1054C0000FF70FF70FF70FF70FF7F2F620005DEF6A
:1054D000FFFFFFFFFFFFFFFFFFFFFFFFFFFFFFFFDC
:1054E000FFFFFFFFFFFFFFFFFFFFFFFFFFFFFFFFCC
:1054F000FFFFFFFFFFFFFFFFFFFF042160082452B3
:105500000FF710F70FF70FF70FF70FF70FF70FF76A
:105510000FF70FF70FF70FF70FF70FF70FF70FF75B
:105520000FF70FF70FF70FF70FF70FF70FF70FF74B
:105530000FF70FF70FF70FF70FF70FF70FF70FF73B
:105540000FF70FF70FF70FF70FF70FF70FF70FF72B
:105550000FF70FF70FF70FF70FF70FF70FF70FF71B
:105560000FF70FF70FF70FF70FF70FF70FF70FF70B
:105570000FF7F2EEF0EE0FF70FF70FF70FF70FF749
:105580000FF70FF70FF70FF70FF70FF70FF70FF7EB
:105590000FF781184108FFFFFFFFFFFFFFFFFFFF2D
:1055A000FFFFFFFFFFFFFFFFFFFFFFFFFFFFFFFF0B
:1055B000FFFFFFFFFFFFFFFFFFFFFFFFFFFFFFFFFB
:1055C000FFFFFFFF4108411013EF10F710F70FF72F
:1055D0000FF70FF70FF70FF70FF70FF70FF70FF79B
:1055E0000FF70FF70FF70FF70FF70FF70FF70FF78B
:1055F0000FF70FF70FF70FF70FF70FF70FF70FF77B
:105600000FF70FF70FF70FF70FF70FF70FF70FF76A
:105610000FF70FF70FF70FF70FF70FF70FF70FF75A
:105620000FF70FF70FF70FF70FF70FF70FF70FF74A
:105630000FF70FF70FF70FF70FF7EFF610F70FF75A
:105640000FF70FF70FF70FF70FF70FF70FF70FF72A
:105650000FF70FF70FF7F0F611F762084108FFFF99
:10566000FFFFFFFFFFFFFFFFFFFFFFFFFFFFFFFF4A
:10567000FFFFFFFFFFFFFFFFFFFFFFFFFFFFFFFF3A
:10568000FFFFFFFFFFFFFFFFFFFFFFFF35AD4108FB
:105690004008F0F610F70FF70FF70FF70FF70FF7B7
:1056A0000FF70FF70FF70FF70FF70FF70FF70FF7CA
:1056B0000FF70FF70FF70FF70FF70FF70FF70FF7BA
:1056C0000FF70FF70FF70FF70FF70FF70FF70FF7AA
:1056D0000FF70FF70FF70FF70FF70FF70FF70FF79A
:1056E0000FF70FF70FF70FF70FF70FF70FF70FF78A
:1056F0000FF70FF70FF70FF70FF70FF70FF70FF77A
:105700000FF710F710F70FF70FF70FF70FF70FF767
:105710000FF70FF70FF70FF70FF70FF70FF70FF759
:10572000855A41088E73FFFFFFFFFFFFFFFFFFFF5A
:10573000FFFFFFFFFFFFFFFFFFFFFFFFFFFFFFFF79
:10574000FFFFFFFFFFFFFFFFFFFFFFFFFFFFFFFF69
:10575000FFFFFFFFFFFF6108410861102FF70FF700
:105760000FF70FF70FF70FF70FF70FF70FF70FF709
:105770000FF70FF70FF70FF70FF70FF70FF70FF7F9
:105780000FF70FF70FF70FF70FF70FF70FF70FF7E9
:105790000FF70FF70FF70FF70FF70FF70FF70FF7D9
:1057A0000FF70FF70FF70FF70FF70FF70FF70FF7C9
:1057B0000FF70FF70FF70FF70FF70FF70FF70FF7B9
:1057C0000FF70FF70FF70FF70FF70FF70FF70FF7A9
:1057D0000FF70FF70FF70FF70FF70FF70FF70FF799
:1057E0000FF70FF70FF72EF741106108FFFFFFFFCC
:1057F000FFFFFFFFFFFFFFFFFFFFFFFFFFFFFFFFB9
:10580000FFFFFFFFFFFFFFFFFFFFFFFFFFFFFFFFA8
:10581000FFFFFFFFFFFFFFFFFFFFFFFFFFFFFFFF98
:10582000410860088018F0EE0FF70FF70FF70FF739
:105830000FF70FF70FF70FF70FF70FF70FF70FF738
:105840000FF70FF70FF70FF70FF70FF70FF70FF728
:105850000FF70FF70FF70FF70FF70FF70FF70FF718
:105860000FF70FF70FF70FF70FF70FF70FF70FF708
:105870000FF70FF70FF70FF70FF70FF70FF70FF7F8
:105880000FF70FF70FF70FF70FF70FF70FF70FF7E8
:105890000FF70FF70FF70FF70FF70FF70FF70FF7D8
:1058A0000FF70FF70FF70FF70FF710F710F712F7C3
:1058B00060086110FFFFFFFFFFFFFFFFFFFFFFFF1B
:1058C000FFFFFFFFFFFFFFFFFFFFFFFFFFFFFFFFE8
:1058D000FFFFFFFFFFFFFFFFFFFFFFFFFFFFFFFFD8
:1058E000FFFFFFFFFFFFFFFFDFFF410841086010E0
:1058F000EFEE0FF70FF70FF70FF70FF70FF70FF7A1
:105900000FF70FF70FF70FF70FF70FF70FF70FF767
:105910000FF70FF70FF70FF70FF70FF70FF70FF757
:105920000FF70FF70FF70FF70FF70FF70FF70FF747
:105930000FF70FF70FF70FF70FF70FF70FF70FF737
:105940000FF70FF70FF70FF70FF70FF70FF70FF727
:105950000FF70FF70FF70FF70FF70FF70FF70FF717
:105960000FF70FF70FF70FF70FF70FF70FF70FF707
:105970000FF710F7F0F640104008BEFFFFFFFFFFE3
:10598000FFFFFFFFFFFFFFFFFFFFFFFFFFFFFFFF27
:10599000FFFFFFFFFFFFFFFFFFFFFFFFFFFFFFFF17
:1059A000FFFFFFFFFFFFFFFFFFFFFFFFFFFFFFFF07
:1059B000DFFF718C41104110A12010F710F70FF795
:1059C0000FF70FF70FF70FF70FF70FF70FF70FF7A7
:1059D0000FF70FF70FF70FF70FF70FF70FF70FF797
:1059E0000FF70FF70FF70FF70FF70FF70FF70FF787
:1059F0000FF70FF70FF70FF70FF70FF70FF70FF777
:105A00000FF70FF70FF70FF70FF70FF70FF70FF766
:105A10000FF70FF70FF70FF70FF70FF70FF70FF756
:105A20000FF70FF70FF70FF70FF70FF70FF70FF746
:105A30000FF70FF70FF70FF70FF7F0F611F7411009
:105A400041109EF7FFFFFFFFFFFFFFFFFFFFFFFF7C
:105A5000FFFFFFFFFFFFFFFFFFFFFFFFFFFFFFFF56
:105A6000FFFFFFFFFFFFFFFFFFFFFFFFFFFFFFFF46
:105A7000FFFFFFFFFFFFFFFFFFFFDFFFEB624110B4
:105A8000600860100FF70FF70FF70FF70FF70FF71A
:105A90000FF70FF70FF70FF70FF70FF70FF70FF7D6
:105AA0000FF70FF70FF70FF70FF70FF70FF70FF7C6
:105AB0000FF70FF70FF70FF70FF70FF70FF70FF7B6
:105AC0000FF70FF70FF70FF70FF70FF70FF70FF7A6
:105AD0000FF70FF70FF70FF70FF70FF70FF70FF796
:105AE0000FF70FF70FF70FF70FF70FF70FF70FF786
:105AF0000FF70FF70FF70FF70FF70FF70FF70FF776
:105B00000FF710F720104110DFFFFFFFFFFFFFFF2F
:105B1000FFFFFFFFFFFFFFFFFFFFFFFFFFFFFFFF95
:105B2000FFFFFFFFFFFFFFFFFFFFFFFFFFFFFFFF85
:105B3000FFFFFFFFFFFFFFFFFFFFFFFFFFFFFFFF75
:105B4000FFFFFFFFFFFFA2184108820010F70FF7C9
:105B50000FF70FF70FF70FF70FF70FF70FF70FF715
:105B60000FF70FF70FF70FF70FF70FF70FF70FF705
:105B70000FF70FF70FF70FF70FF70FF70FF70FF7F5
:105B80000FF70FF70FF70FF70FF70FF70FF70FF7E5
:105B90000FF70FF70FF70FF70FF70FF70FF70FF7D5
:105BA0000FF70FF70FF70FF70FF70FF70FF70FF7C5
:105BB0000FF70FF70FF70FF70FF70FF70FF70FF7B5
:105BC0000FF70FF70FF70FF70FF7A98361102110E9
:105BD000FFFFFFFFFFFFFFFFFFFFFFFFFFFFFFFFD5
:105BE000FFFFFFFFFFFFFFFFFFFFFFFFFFFFFFFFC5
:105BF000FFFFFFFFFFFFFFFFFFFFFFFFFFFFFFFFB5
:105C0000FFFFFFFFFFFFFFFFFFFFFFFFFFFF410859
:105C1000610861100FF70FF70FF70FF70FF70FF786
:105C20000FF70FF70FF70FF70FF70FF70FF70FF744
:105C30000FF70FF70FF70FF70FF70FF70FF70FF734
:105C40000FF70FF70FF70FF70FF70FF70FF70FF724
:105C50000FF70FF70FF70FF70FF70FF70FF70FF714
:105C60000FF70FF70FF70FF70FF70FF70FF70FF704
:105C70000FF70FF70FF70FF70FF70FF70FF70FF7F4
:105C80000FF70FF70FF70FF70FF70FF70FF70FF7E4
:105C90000FF7A01860084108FFFFFFFFFFFFFFFF9D
:105CA000FFFFFFFFFFFFFFFFFFFFFFFFFFFFFFFF04
:105CB000FFFFFFFFFFFFFFFFFFFFFFFFFFFFFFFFF4
:105CC000FFFFFFFFFFFFFFFFFFFFFFFFFFFFFFFFE4
:105CD000FFFFFFFFFFFF6210410810EF0FF70FF704
:105CE0000FF70FF70FF70FF70FF70FF70FF70FF784
:105CF0000FF70FF70FF70FF70FF70FF70FF70FF774
:105D00000FF70FF70FF70FF70FF70FF70FF70FF763
:105D10000FF70FF70FF70FF70FF70FF70FF70FF753
:105D20000FF70FF70FF70FF70FF70FF70FF70FF743
:105D30000FF70FF70FF70FF70FF70FF70FF70FF733
:105D40000FF70FF70FF70FF70FF70FF70FF70FF723
:105D50000FF70FF70FF70FF7F0F6F3EE611061088A
:105D600038C6FFFFFFFFFFFFFFFFFFFFFFFFFFFF43
:105D7000FFFFFFFFFFFFFFFFFFFFFFFFFFFFFFFF33
:105D8000FFFFFFFFFFFFFFFFFFFFFFFFFFFFFFFF23
:105D9000FFFFFFFFFFFFFFFFFFFFFFFF6D736110BE
:105DA00045520FF70FF70FF70FF70FF70FF70FF732
:105DB0000FF70FF70FF70FF70FF70FF70FF70FF7B3
:105DC0000FF70FF70FF70FF70FF70FF70FF70FF7A3
:105DD0000FF70FF70FF70FF70FF70FF70FF70FF793
:105DE0000FF70FF70FF70FF70FF70FF70FF70FF783
:105DF0000FF70FF70FF70FF70FF70FF70FF70FF773
:105E00000FF70FF70FF70FF70FF70FF70FF70FF762
:105E10000FF70FF70FF70FF70FF70FF70FF70FF752
:105E200010F70FF7811041102008DFFFFFFFFFFF81
:105E3000FFFFFFFFFFFFFFFFFFFFFFFFFFFFFFFF72
:105E4000FFFFFFFFFFFFFFFFFFFFFFFFFFFFFFFF62
:105E5000FFFFFFFFFFFFFFFFFFFFFFFFFFFFFFFF52
:105E6000FFFFFFFF611061100FEF0FF70FF70FF744
:105E70000FF70FF70FF70FF70FF70FF70FF70FF7F2
:105E80000FF70FF70FF70FF70FF70FF70FF70FF7E2
:105E90000FF70FF70FF70FF70FF70FF70FF70FF7D2
:105EA0000FF70FF70FF70FF70FF70FF70FF70FF7C2
:105EB0000FF70FF70FF70FF70FF70FF70FF70FF7B2
:105EC0000FF70FF70FF70FF70FF70FF70FF70FF7A2
:105ED0000FF70FF70FF70FF70FF70FF70FF70FF792
:105EE0000FF70FF70FF70FF710F7F0F6F4EE41107A
:105EF0004110B6BDFFFFFFFFFFFFFFFFFFFFFFFFEA
:105F0000FFFFFFFFFFFFFFFFFFFFFFFFFFFFFFFFA1
:105F1000FFFFFFFFFFFFFFFFFFFFFFFFFFFFFFFF91
:105F2000FFFFFFFFFFFFFFFFFFFFBEF76110401005
:105F3000EFF60FF70FF70FF70FF70FF70FF70FF752
:105F40000FF70FF70FF70FF70FF70FF70FF70FF721
:105F50000FF70FF70FF70FF70FF70FF70FF70FF711
:105F60000FF70FF70FF70FF70FF70FF70FF70FF701
:105F70000FF70FF70FF70FF70FF70FF70FF70FF7F1
:105F80000FF70FF70FF70FF70FF70FF70FF70FF7E1
:105F90000FF70FF70FF70FF70FF70FF70FF70FF7D1
:105FA0000FF70FF70FF70FF70FF70FF70FF70FF7C1
:105FB0000FF7F0F62FF7601041102008FFFFFFFFEA
:105FC000FFFFFFFFFFFFFFFFFFFFFFFFFFFFFFFFE1
:105FD000FFFFFFFF000000000000000001020304BB
:105FE00006070809030406080C10182030000000FA
:105FF00010600008000000201000000020110008C0
:10600000206000081000002000040000301100088B
:10601000010000000400000000000000000020005B
:04000005080000C12E
:00000001FF
