:020000040800F2
:10000000B804002001010008B91A00085D120008B8
:10001000B51A000849070008CD1A000800000000C2
:10002000000000000000000000000000C11A0008ED
:100030004D07000800000000BD1A0008C51A00089E
:100040001B0100081B0100081B0100081B01000820
:100050001B0100081B0100081B0100081B01000810
:100060001B0100081B0100081B0100081B01000800
:100070001B0100081B0100081B0100081B010008F0
:100080001B0100081B0100081B0100081B010008E0
:100090001B0100081B0100081B0100081B010008D0
:1000A0001B0100081B0100081B0100081B010008C0
:1000B0001B0100081B0100081B0100081B010008B0
:1000C0001B0100081B0100081B0100081B010008A0
:1000D0001B0100081B0100081B0100081B01000890
:1000E0001B0100081B0100081B010008DFF80CD0F1
:1000F00000F008FB00480047591B0008B804002026
:100100000648804706480047FEE7FEE7FEE7FEE7B1
:10011000FEE7FEE7FEE7FEE7FEE7FEE7C91A000896
:10012000ED0000082DE9FE4F804681EA0300C00F74
:100130000C46009021F0004123F00045B8EB02008E
:10014000A94105D24046214690461C460B46024630
:1001500023F00040104347D0270DC7F30A00C3F334
:100160000A510290401A019040286BDAC3F3130041
:1001700040F4801B0098924620B10023D2EB030A82
:1001800063EB0B0B01985946C0F14002504600F05A
:1001900065F906460D4650465946019A00F06DF93C
:1001A00010EB08006141002487EA115284EAE773EA
:1001B0001A4340D0009A62B3019A012A4FEA0752CB
:1001C00015DC001B61EB02014FF0004202EA07520E
:1001D000CDE90042001C41F5801132462B4600F06B
:1001E000A4F903B0BDE8F08F40462146F9E7001BB3
:1001F00061EB0201001C41F5801300185B412018DF
:10020000A2F5001747EB030140EAD570B6196D411E
:1002100011E06D084FEA360645EAC0754FEA07520D
:10022000001B61EB0201001C41F5801149084FEAF7
:1002300030000019514132462B4603B0BDE8F04F63
:1002400000F064B90098012240000023D0EB0202C4
:1002500063EBE073009821464FEAE074B8EB0000CE
:1002600061EB0401E9E783F000435BE781F00041C3
:1002700058E72DE9FE4F81EA030404F0004421F021
:10028000004100944FF0000B23F0004350EA0104BA
:100290005ED052EA03045BD0C3F30A54C1F30A559B
:1002A0002C44A4F2F3340194A0FB0254C1F31301D3
:1002B00041F48011C3F3130343F4801301FB0244A0
:1002C00000FB034E840A970A44EA815447EA8357A5
:1002D000A4FB076802958D0A05FB07854FEA932C5E
:1002E00004FB0C542705029D4FEA065847EA1637CF
:1002F000B5EB08056EEB070C870E920E47EA8117E7
:1003000042EA8312A7FB0201B6EB0B0164EB000487
:100310002B0D43EA0C335E1844EB1C50DA46514671
:10032000E7FB0201C5F313044FEA0B3343EA14530E
:100330004FEA0432019C43EA0603A4F10C04029440
:10034000009CCDE900B400F0F0F803B0BDE8F08FF8
:1003500000200146F9E70EB540F233410291002139
:10036000CDE900110A460B4600F0DFF803B000BDEE
:1003700000F0004230F000400AD0C10D01F560717C
:10038000C0F3160042EA0151C2084007114370470A
:1003900000200146704701F0004330B421F00041D5
:1003A00050EA010206D00A0DA2F56072C1F31301F2
:1003B000002A02DC30BC00207047440F44EAC1042C
:1003C000C100E01830BC00EBC25000F068B830B596
:1003D0000B46014600202022012409E021FA02F503
:1003E0009D4205D303FA02F5491B04FA02F528449D
:1003F000151EA2F10102F1DC30BD2DE9F05F0546CA
:10040000002092469B4688460646814640241BE0D3
:10041000284641464746224600F086F953465A464A
:10042000C01A914110D311461846224600F016F822
:100430002D1A67EB01084F4622460120002100F0EB
:100440000DF817EB00094E41201EA4F10104DFDC7A
:10045000484631462A464346BDE8F09F202A04DB41
:10046000203A00FA02F1002070479140C2F12003C7
:1004700020FA03F3194390407047202A06DBCB177C
:10048000203A41FA02F043EAE07306E041FA02F34F
:10049000D040C2F12002914008431946704700291C
:1004A000A8BF7047401C490008BF20F001007047FA
:1004B00010B4B0FA80FC00FA0CF050EA010404BF5A
:1004C00010BC704749B1CCF1200421FA04F411FAB0
:1004D0000CF118BF012121430843A3EB0C01CB1DF4
:1004E0004FEA00614FEA102042BF002010BC704765
:1004F00000EBC35010440029A4BF10BC7047401C3F
:10050000490008BF20F0010010BC704710B5141E50
:1005100073F1000408DA401C41F1000192185B41BC
:100520001A4301D120F0010010BD2DE9F04D924693
:100530009B4611B1B1FA81F202E0B0FA80F22032AA
:100540009046FFF78BFF04460F4640EA0A0041EA57
:100550000B0153465A46084313D0114653EA010093
:1005600019D0C8F14002504600F0DEF805460E46AC
:10057000504659464246FFF771FF084305D0012017
:1005800004E020463946BDE8F08D0020054346EAE8
:10059000E0762C4337430A986305E40AA0EB080091
:1005A0000022FD0A44EA47540A3002D500200146E1
:1005B000E9E7010510196941DDE9084500196941BC
:1005C000BDE8F04DA2E72DE9F04D81EA030404F007
:1005D000004B21F0004514464FF0000A23F0004183
:1005E00050EA050220D054EA01021DD0C5F30A5793
:1005F0000246C5F31303C1F31300C1F30A5640F4D6
:10060000801543F48013A7EB0608101BD64608F2AA
:10061000FD3873EB050002D308F1010801E09218E0
:100620005B41B8F1000F03DA00200146BDE8F08D10
:1006300000204FF48011064684460EE0171B73EB32
:10064000050705D3121B63EB050306434CEA010CB7
:1006500049084FEA300092185B4150EA0107EDD19A
:1006600052EA030012D082EA040083EA050108433B
:1006700005D0101BAB4106D20122002306E0002268
:100680004FF0004302E06FF0010253101AEB060036
:100690004CEB085110EB0A0041EB0B01BDE8F04DAB
:1006A000FFF734BFC1F30A52C1F3130140F2FF3325
:1006B00041F480119A4202DA00200146704740F26C
:1006C00033439A42A2F2334202DC524200F02CB889
:1006D000FFF7C4BE30B5041E71F1000404DB4FF017
:1006E0000044404264EB0101141E73F1000405DB79
:1006F0001C464FF00043524263EB0403994208BF8B
:10070000904230BD064C074D06E0E06840F0010322
:1007100094E8070098471034AC42F6D3FFF7EAFCA0
:1007200090250008B0250008202A04DB203A21FA91
:1007300002F00021704721FA02F3D040C2F12002FA
:100740009140084319467047FEE7000070470000DB
:10075000EFF3108072B600BFFEE70000B0B50446AC
:1007600000F02AF9054640F20400C2F200000078C9
:10077000611C18BF044400BF00F01EF9401BA042DA
:10078000FAD3B0BD2DE9F04F82B00E68002E00F014
:10079000038141F20042C4F20102042340F2004E00
:1007A000904208BF03234FF6FF7CC4F2010E009372
:1007B00000240123C1F2100C4FF0000A4FF0000991
:1007C00049E000BF012704F00C030F229A402BEAF6
:1007D000020207FA03F34FEA9A051A4346F8252066
:1007E000D1F804B040F20C455FEACB22DEF80820D5
:1007F00054BF22EA080242EA0802C4F20105CEF818
:1008000008202A685FEA8B2354BF22EA080242EAE2
:1008100008022A605FEA8B33DEF8042054BF22EA24
:10082000080242EA08025FEACB33CEF80420DEF881
:1008300000204FF0010354BF22EA080242EA0802F6
:10084000CEF800200E680AF1010A36FA0AF204F125
:10085000040400F0A18003FA0AF816EA080FF1D0A8
:100860004E68664512DC122E56D8DFE806F0350BCE
:100870004549555555555555555555555555554D4C
:10088000510000BFD1F80C9046E000BF4FF6FF7258
:10089000C1F2210296420FDC0022C1F211029642FF
:1008A0001AD00022C1F21202964215D00022C1F2E3
:1008B0002102964210D02FE00022C1F2220296427D
:1008C0000AD00022C1F23102964205D00022C1F2C4
:1008D0003202964220D100BF8A684AB1012A14BF71
:1008E000C0F81480C0F810804FF0080914E000BF71
:1008F0004FF0040910E000BFCA6802F108090BE0DC
:100900004FF0000908E000BFCA6802F1040903E0E3
:10091000CA6802F10C0900BF22460646BAF1080F68
:1009200024BF203A043637680F25954027EA05058D
:1009300009FA02F22A433260CA79D2067FF582AF01
:1009400041F21803C4F202031A68AEF57E7642F053
:1009500001021A601A6802F001020192019A2AF05B
:10096000030256F802B040F60002C4F201029042BF
:1009700010D040F60042C4F2010290423FF422AF90
:1009800041F20002C4F20102009F904208BF022718
:1009900019E700BF002716E702B0BDE8F08F00009E
:1009A0008068084018BF012070470000002A08BF77
:1009B000090401617047000040F2B000C2F200007B
:1009C0000068704740F2040040F2B001C2F200003B
:1009D000C2F2000100780A68104408607047000005
:1009E00080B542F20000C4F20200016841F010013B
:1009F0000160032000F07AF80F2000F005F800F005
:100A000027F8002080BD000070B540F20406C2F255
:100A1000000640F20C013278C2F200014FF47A7302
:100A20000968B3FBF2F20446B1FBF2F1084600F0AC
:100A30004FFB0F2C4FF0010508D838B94FF0FF30AD
:100A400021460022002500F025F87460284670BD7C
:100A500082B041F21800C4F202000168022241F0A3
:100A600001010160016801F00101019101994168F2
:100A700041F080514160406800F080500090009843
:100A80000420C4F20100016862F31A61016002B03F
:100A90007047000010B54EF60C5CCEF2000CDCF88E
:100AA0000030C3F3022E8EF00704042C28BF042468
:100AB000BEF103034FF0FF3E0EFA04F438BF0023EB
:100AC000A14399400EFA03F39A43114300F00F0239
:100AD00000F160430901043A03F5644362440028CD
:100AE00048BF02F10C03197010BD00004EF60C5106
:100AF000CEF200010A684FF6FF031A4060F30A22A3
:100B000042F0806040F0FD70086070472DE9F043CE
:100B100081B0002800F0858042F20008C4F202088B
:100B20000446D8F800000D4600F0070088420CD2B9
:100B3000D8F8000020F007002843C8F80000D8F8D3
:100B4000000000F00700A8426BD1206841F20409C0
:100B50008107C4F2020917D5410705D5D9F800105D
:100B600041F4E061C9F80010010705D5D9F800107B
:100B700041F46051C9F80010D9F80010A26821F0C2
:100B8000F0011143C9F80010C00741D1D8F80000A6
:100B900000F00700A8420CD9D8F8000020F00700A8
:100BA0002843C8F80000D8F8000000F00700A84269
:100BB00037D12068410707D5D9F80010E26821F441
:100BC000E0611143C9F80010000708D5D9F800000A
:100BD000216920F4605040EAC100C9F80000D9F84A
:100BE000002002F00C00082841F20020C0F27A0038
:100BF00050D142F28053C2F38341C0F60003595CE6
:100C0000D2033BD440F60010C0F23D00484341E01F
:100C1000606802280AD001282AD159F8041C8903E7
:100C200008D4012001B0BDE8F08300BF59F8041CCE
:100C30008901F6D5D9F8001021F003010843C9F85D
:100C40000000FFF7B9FE064641F28837D9F80000E8
:100C5000616800F00C00B0EB810F97D0FFF7ACFE9D
:100C6000801BB842F2D9032001B0BDE8F08300BF79
:100C700059F8041C8907D4D5DCE700BFD9F8002057
:100C800042F27E53C2F34042C0F600039A5C4843EE
:100C9000B0FBF2F0D9F8001042F26652C1F3031132
:100CA000C0F60002515C40F20C0220FA01F140F261
:100CB0000800C2F200000068C2F200021160FFF7F3
:100CC000A3FE002001B0BDE8F083000040F20C005C
:100CD00041F20401C2F20000C4F202010068096896
:100CE00042F27652C1F30221C0F60002515CC840C4
:100CF0007047000040F20C0041F20401C2F2000013
:100D0000C4F202010068096842F27652C1F3C221BE
:100D1000C0F60002515CC840704700002DE9F04168
:100D200082B0002868D00446007841F20006C0076F
:100D3000C4F2020625D0706800F00C0004281BD015
:100D4000706800F00C00082802D17068C00313D44A
:100D50006068002800F06881B0F5A02F00F07C8169
:100D6000B0F5803F00F07C81306820F48030306046
:100D7000306820F4802076E13068800301D5606817
:100D8000D0B32078800718D5706810F00C0F07D00A
:100D9000706800F00C0008286ED17068C0036BD436
:100DA0003068800702D52069012825D13068616943
:100DB00020F0F80040EAC1003060207800071FD41E
:100DC0002078400732D4E56995B1706800F00C00D6
:100DD000082840F08F80012D0ED07068216A00F441
:100DE00080328A4208D1616A00F47010884203D1CF
:100DF000002002B0BDE8F081012002B0BDE8F08122
:100E0000A069002862D00020C4F242200121C0F86D
:100E10008014FFF7D1FD0546706A800700F18C80D1
:100E2000FFF7CAFD401B0228F6D92AE1F06910F04D
:100E3000805808D1F06940F08050F061F06900F00E
:100E400080500090009847F20007C4F2000738680D
:100E5000C00529D4386840F480703860FFF7ACFDD5
:100E6000054600BF3868C0051ED4FFF7A5FD401B2E
:100E70006428F7D905E100BF2069002840F200008E
:100E8000C4F2422000F0828001210160FFF794FD4E
:100E9000054600BF306880073FF588AFFFF78CFD3F
:100EA000401B0228F6D9ECE0E068002800F08080C2
:100EB000052800F09780012800F09880306A20F023
:100EC00001003062306A20F0040092E00020C4F299
:100ED00042200021C0F88014FFF76EFD054600BFD8
:100EE000706A80077FF56CAFFFF766FD401B022834
:100EF000F6D9C6E00027C4F2422700203866FFF783
:100F00005BFD022D05460BD13068800140F1BE80AB
:100F1000FFF752FD401B02284FF00300F4D968E7A9
:100F2000306880017FF564AFFFF746FD401B022863
:100F30004FF00300F4D95CE740F20C00C2F200006D
:100F4000006844F6D351C1F26201A0FB0101480AD6
:100F5000019000BF00BF0198411E002801913FF49D
:100F60002FAF00BF0198411E002801913FF428AF28
:100F700000BF0198411E002801913FF421AF00BF3E
:100F80000198411E00280191E4D119E70021016078
:100F9000FFF712FD054600BF306880077FF50DAFF3
:100FA000FFF70AFD401B02284FF00300F4D920E7A9
:100FB000306A20F001003062306A20F004003062B4
:100FC000FFF7FAFC054641F2883700BF306A800718
:100FD00020D5FFF7F1FC401BB8424FF00300F5D9D4
:100FE00007E700BF306A40F004003062306A40F02A
:100FF00001003062FFF7E0FC054641F2883700BF90
:10100000306A800706D4FFF7D7FC401BB842F7D9F7
:1010100037E000BFB8F1000F7FF4D5AEF06920F0E3
:101020008050F061CFE600BF306820F4803030603F
:10103000306820F480203060FFF7BEFC054600BF1A
:10104000306880037FF59DAEFFF7B6FC401B642837
:101050004FF00300F4D9CCE6306840F480203060D3
:10106000306840F480303060FFF7A6FC054600BFD2
:10107000306880033FF585AEFFF79EFC401B642877
:10108000F6D9032002B0BDE8F08100BF206AB0F5B8
:10109000803F05D17168A26821F40031114371606D
:1010A0007168626A21F47411114308437060012071
:1010B0003866FFF781FC0446306880013FF598AE42
:1010C000FFF77AFC001B02284FF00300F4D990E6EA
:1010D000411E0020B0EB116F1CBF012070474EF283
:1010E0001002CEF2000251604EF62351CEF2000102
:1010F000F0230B700721906011607047002804BF37
:101100000120704710B5044690F8410028B900202E
:1011100084F84000204600F063F8242084F8410061
:101120002068D4E90212C36823F40053C360036942
:1011300023F440531A430261D4E904231143C268E3
:10114000194341F20C639A431143C1604169A2699A
:1011500021F44071114343F60002C4F201029042AF
:10116000416103D0FFF7B2FD02E000BFFFF7C2FD0F
:101170006268192148439100B0FBF1F048F21F5119
:10118000C5F2EB11A0FB01235A094FF69C73C0F680
:10119000FF7302FB0300322303EB0010A0FB0101ED
:1011A000F02303EA5113206803EB0212C1F3431149
:1011B00011448160016921F490410161416921F08C
:1011C0002A014161C16841F40051C1600020202121
:1011D000606484F8411084F84210606310BD000020
:1011E00070B586B040F60004C4F20104006804F54E
:1011F000405100268842049602D006B070BD00BF60
:1012000041F21800C4F20200016802AD41F48041CD
:101210000160016801F4804101910199016841F088
:10122000040101600068294600F004000190019863
:101230004FF4007002900220039003200590204696
:10124000FFF7A0FA4FF48060CDE902062046294658
:101250000496FFF797FA06B070BD0000FEE70000A5
:1012600070B540F60044C4F20104204680210122FA
:101270000125FFF79BFB022000F030FC20464021B7
:101280000122FFF793FB022000F028FC204680217A
:10129000FFF786FB0138B0FA80F04009C60120460E
:1012A00040210022FFF782FB022000F017FC2046BD
:1012B00040210122FFF77AFB022000F00FFC2046BC
:1012C0008021FFF76DFB012820464FF040014FF0D1
:1012D000000208BF4036FFF769FB022000F0FEFB6A
:1012E000204640210122FFF761FB022000F0F6FBBF
:1012F00020468021FFF754FB012820464FF0400193
:101300004FF0000208BF2036FFF750FB022000F02C
:10131000E5FB204640210122FFF748FB022000F0B8
:10132000DDFB20468021FFF73BFB012820464FF0E4
:1013300040014FF0000208BF1036FFF737FB0220D4
:1013400000F0CCFB204640210122FFF72FFB0220BA
:1013500000F0C4FB20468021FFF722FB01284FF05C
:10136000010006F0F00108BF08200E1820464021B9
:101370000022FFF71BFB022000F0B0FB20464021BB
:101380000122FFF713FB022000F0A8FB204680217A
:10139000FFF706FB01284FF0010008BF04200643B9
:1013A000204640210022FFF701FB022000F096FBBF
:1013B000204640210122FFF7F9FA022000F08EFBBF
:1013C00020468021FFF7ECFA012808BF02252046BD
:1013D000402100223543FFF7E9FA022000F07EFBAE
:1013E000204640210122FFF7E1FA022000F076FBBF
:1013F00020468021FFF7D4FA0138B0FA80F0400986
:1014000005F0FE010D18204640210022FFF7CEFA1C
:10141000022000F063FB284670BD0000B0B540F626
:101420000044C4F201040546C20920468021FFF7AA
:10143000BDFA032000F052FB204640210122FFF7B5
:10144000B5FA022000F04AFB204640210022FFF7B7
:10145000ADFA022000F042FBC5F380122046802145
:10146000FFF7A4FA032000F039FB204640210122B7
:10147000FFF79CFA022000F031FB204640210022B9
:10148000FFF794FA022000F029FBC5F34012204632
:101490008021FFF78BFA032000F020FB204640213B
:1014A0000122FFF783FA022000F018FB20464021BA
:1014B0000022FFF77BFA022000F010FBC5F30012B8
:1014C00020468021FFF772FA032000F007FB204638
:1014D00040210122FFF76AFA022000F0FFFA2046BD
:1014E00040210022FFF762FA022000F0F7FAC5F36C
:1014F000C00220468021FFF759FA032000F0EEFADF
:10150000204640210122FFF751FA022000F0E6FABE
:10151000204640210022FFF749FA022000F0DEFABF
:10152000C5F3800220468021FFF740FA032000F037
:10153000D5FA204640210122FFF738FA022000F0B8
:10154000CDFA204640210022FFF730FA022000F0B9
:10155000C5FAC5F3400220468021FFF727FA032091
:1015600000F0BCFA204640210122FFF71FFA0220BA
:1015700000F0B4FA204640210022FFF717FA0220BB
:1015800000F0ACFA05F0010220468021FFF70EFAC8
:10159000032000F0A3FA204640210122FFF706FABB
:1015A000022000F09BFA204640210022FFF7FEF9BE
:1015B0000220BDE8B04000F091BA00002DE9F041F2
:1015C00084B041F21800C4F20200016840F6004401
:1015D00041F0080101600168C4F2010401F0080152
:1015E0000091009901686D4641F0080101600168B1
:1015F0004FF0110801F008010091009901680026E0
:1016000041F0040101600068022700F0040000902E
:1016100000988020009020462946CDF8048002964C
:101620000397FFF7AFF84020CDE900082046294690
:10163000CDE90267FFF7A6F8A4F580602946CDE959
:1016400000760296FFF79EF82046402101220125F0
:10165000FFF7ACF9204680210122FFF7A7F96C467D
:101660003A20012122460223ADF8006000F0F2F892
:101670003A200821224601238DF8005000F0EAF8B4
:1016800004B0BDE8F08100002DE9F04381B040F6E0
:101690000044C4F2010490460D46074620468021CE
:1016A00001229946FFF782F9022000F017FA20463E
:1016B00040210122FFF77AF9022000F00FFA2046BC
:1016C000802100220026FFF771F9022000F006FABF
:1016D000204640210022FFF769F9012000F0FEF9C1
:1016E00007F0FE00FFF79AFE204680210122FFF757
:1016F0005DF9022000F0F2F9204640210122FFF7B7
:1017000055F920468021FFF74BF9022000F0E6F959
:10171000204640210022FFF749F92846FFF77EFEC8
:10172000204680210122FFF741F9022000F0D6F97E
:10173000204640210122FFF739F920468021FFF79A
:101740002FF9022000F0CAF9204640210022FFF7BD
:101750002DF9204680210122FFF728F9022000F010
:10176000BDF9204640210122FFF720F9022000F0B8
:10177000B5F9204680210022FFF718F9022000F079
:10178000ADF9204640210022FFF710F9012000F0BA
:10179000A5F947F00100FFF741FE20468021012214
:1017A000FFF704F9022000F099F9204640210122B8
:1017B000FFF7FCF820468021FFF7F2F8022000F046
:1017C0008DF9204640210022FFF7F0F8B9F1000F13
:1017D00024D0C9F10005A8F1010700BFFFF740FDC3
:1017E000013507F8010F46F1000220468021FFF77E
:1017F000DDF8022000F072F9204640210122FFF7B7
:10180000D5F8022000F06AF9204640210022FFF7B7
:10181000CDF8022000F062F9002DDFD120468021B2
:101820000022FFF7C3F8012000F058F920464021BC
:101830000122FFF7BBF8022000F050F9204680217A
:101840000122FFF7B3F8032001B0BDE8F04300F038
:1018500045B900002DE9F04140F60044C4F201040E
:1018600090460F4606462046802101221D46FFF77E
:101870009DF8022000F032F9204640210122FFF7B6
:1018800095F8022000F02AF9204680210022FFF777
:101890008DF8022000F022F9204640210022FFF7B7
:1018A00085F8012000F01AF906F0FE00FFF7B6FDFA
:1018B000204680210122FFF779F8022000F00EF97E
:1018C000204640210122FFF771F820468021FFF7D2
:1018D00067F8022000F002F9204640210022FFF7BD
:1018E00065F83846FFF79AFD204680210122FFF770
:1018F0005DF8022000F0F2F8204640210122FFF7B7
:1019000055F820468021FFF74BF8022000F0E6F85A
:10191000204640210022FFF749F805B3A8F101064F
:1019200016F8010FFFF77AFD204680210122FFF70C
:101930003DF8022000F0D2F8204640210122FFF7B6
:1019400035F820468021FFF72BF8022000F0C6F87A
:10195000204640210022FFF729F8013DE0D1204632
:1019600080210022FFF722F8012000F0B7F820467E
:1019700040210122FFF71AF8022000F0AFF82046BC
:1019800080210122FFF712F80320BDE8F04100F0AA
:10199000A5B800002DE9F04F85B041F21800C4F25F
:1019A0000200016840F6000B41F01001016001687F
:1019B000C4F2010B01F010010191019901680BF5CE
:1019C000006641F0200101600168012201F0200160
:1019D0000191019901684FF4005441F00401016044
:1019E00001684FF0010801F00401019101990168BB
:1019F00041F00801016000684FF4005100F0080058
:101A0000019001983046FEF7D1FF5846012101228E
:101A1000FEF7CCFF0BF580652846C0210122FEF7BA
:101A2000C5FF01AF01944FF0110A00244FF00209E5
:101A300030463946CDF808A00394CDF81090FEF753
:101A4000A1FE58463946CDE9018ACDE90349FEF7A2
:101A500099FE58463946CDE901940394FEF792FE6B
:101A6000C020CDE9010A28463946CDE90348FEF7F2
:101A700089FE05B0BDE8F08F80B540F2680043F6FE
:101A80000001C2F20000C4F2010100234FF00C0C6F
:101A90004FF4E13280E80E00C0E90333C0E905C32A
:101AA000C361FFF72BFB002808BF80BDBDE8804065
:101AB000FEF74EBEFEE70000FEE7000070470000A4
:101AC00070470000FEF77EBF70470000FEE7000091
:101AD00040F26401C2F200010860704780B54EF226
:101AE000180140F26402CEF20001C2F2000251F885
:101AF00004CC1268002302FB00FE08680AE000BF65
:101B000003449B1A904298BF63447345104628BF14
:101B100080BD00BF0A689042F2D10A689042EFD1BE
:101B20000A689042ECD10A689042F3D0E8E70000DE
:101B300043F60001C4F201010A68520609D40A689A
:101B400052065CBF0A685FEA426202D40A68520623
:101B5000F2D5C2B24A60704790B0FEF741FF002450
:101B60000120CDE90B44CDE9094406900A904FF4D9
:101B7000E0104FF4803102250F9006A8CDE907143C
:101B8000CDE90D51FFF7CAF820B1EFF3108072B61E
:101B9000FEE700BF0F20CDE901054FF48060CDE9DD
:101BA000040401A802210394FEF7B0FF20B1EFF373
:101BB000108072B6FEE700BFFFF7ECFEFFF75CFF98
:101BC0004820FFF785FFFFF7F9FC40F2000A40F2DA
:101BD000000B00200DF10409C3F6B07AC4F2700BBB
:101BE00022A4ADF81800ADF8040000BF3A2005218A
:101BF00006AA0223FFF748FD3A2001214A460223A4
:101C0000FFF742FD9DF818009DF8195000F01008EC
:101C10000001C0B2FEF79FFB064628460F46FEF7BE
:101C20009AFB00225346FEF724FB32463B46FEF762
:101C300079FA05460E46002059462A463346FEF7F5
:101C400012FBB8F1000F04BF28463146FEF7A3FB94
:101C500005464FF47A70FEF781FD2846FEF788FBB3
:101C6000024620460B4600F005F8BFE7252E3466F5
:101C70000A0000000FB4054B10B503A9044A0298EE
:101C800000F0DAF810BC5DF814FB0000311B00080E
:101C90001000002002E008C8121F08C1002AFAD173
:101CA00070477047002001E001C1121F002AFBD1DC
:101CB000704700002DE9FF5F82B00021DDE90430AC
:101CC000020DDDF840B0034318D044F61050A2F2E4
:101CD000FF3242431514119801281FD0A5EB0B00C9
:101CE000401C5FEA000A4FF000064E4FDFF83891C3
:101CF000B046504615D5CAF1000413E011980124EE
:101D00004AA3012801D16FEA0B010298119AC0E998
:101D10000031C0E9024206B0BDE8F09FCBF10000FF
:101D2000DFE704460021404A491842EB0450CDE960
:101D3000001012E0E00707D032463B4640464946D5
:101D4000FEF797FA8046894632463B4610461946CA
:101D5000FEF78FFA06460F466410002CEAD1DDE943
:101D60000401DDE90023BAF1000F06DAFEF781FA7B
:101D700042464B46FEF77DFA05E0FEF724FC42465C
:101D80004B46FEF720FC04460E460022284BFEF789
:101D9000A1FC03D84FF0FF30014607E00022254B9D
:101DA00020463146FEF7BEF9FEF77CFC102409E020
:101DB000002C0ADB0A220023FEF71FFB039B3032B4
:101DC0001A55641E50EA0102F2D1641C039AC4F150
:101DD00011031444119A012A03D0012208430DD1A2
:101DE0000AE0084304D000204FF0110B119072E775
:101DF000A3EB0B056D1E0DE05B4504DD4FF000020B
:101E000005F1010504E003DA4FF00002A5F1010538
:101E1000002AECD002981199C0E90231C0E90045CE
:101E200079E70000000014400000F03F300000009F
:101E30000000F0430000E03F2DE9FF4F95B09B46C6
:101E40008946064600250FE2252877D1002427463B
:101E5000F84A0121059400E0044316F8013F203BB5
:101E600001FA03F01042F7D130782A2811D06FF030
:101E70002F033078A0F13002092A16D8059A44F0D1
:101E8000020402EB820203EB42021044761C05902E
:101E9000EFE759F8042B0592002A03DA504244F484
:101EA0000054059044F00204761C30782E2816D198
:101EB00016F8010F44F004042A280DD06FF02F0209
:101EC0003078A0F13003092B09D807EB870302EB28
:101ED0004303C718761CF3E759F8047B761C307867
:101EE0006C280FD006DC4C2817D068280DD06A2843
:101EF00014D104E0742810D07A280FD10DE044F4F6
:101F000000140AE044F4801401E044F440147278B0
:101F1000824202D104F58014761C761C3078662843
:101F20000BD013DC582877D009DC002875D0452861
:101F3000F6D04628F4D047281AD19DE118E063284E
:101F400035D0642879D0652812D195E1702873D0F6
:101F500008DC6728F1D069286FD06E280DD06F2873
:101F600006D1B5E073282CD0752875D0782874D0A8
:101F70005A46179990476D1C75E1C4F30250022828
:101F800009D003280DD0D9F8001004280DD00D6019
:101F900009F1040967E1D9F80010EA17C1E9005214
:101FA000F6E7D9F800100D80F2E70D70F0E719F8A8
:101FB000041B8DF8001000208DF80100EA46012076
:101FC00003E059F804AB4FF0FF3061074FF0000118
:101FD00002D40DE008F101018846B9420FDA8045CC
:101FE000F8DB1AF808100029F4D108E008F1010123
:101FF00088468142FADB1AF808100029F6D10598C4
:102000005B46A0EB080721463846179A00F094FA81
:10201000284400EB080507E04DE029E10DE01AF83F
:10202000010B5A4617999047B8F10108F7D25B4661
:1020300021463846179A13E142E00A220092C4F37F
:1020400002524FF0000A022A08D059F804CB032AA2
:102050004FEAEC710AD00DE029E02AE009F107010E
:1020600021F00702F2E802C1914609E00FFA8CFC68
:102070004FEAEC71042A03D14FFA8CFC4FEAEC7161
:10208000002907DA0A460021DCF1000C61EB0201AD
:102090002D2202E0220504D52B228DF804200122F6
:1020A00003E0E20701D02022F7E7904659E00A2139
:1020B00002E010220DE010214FF0000A00910BE029
:1020C00010224FF0000A44F004040827009203E0B5
:1020D00008224FF0000A0092C4F30252022A05D0EF
:1020E00059F804CB0021032A08D009E009F10701BF
:1020F00021F00702F2E802C1914605E01FFA8CFCCC
:10210000042A01D10CF0FF0C4FF00008220728D55B
:10211000702806D0009B83F0100353EA0A0305D011
:102120000EE040228DF80420012208E05CEA010262
:1021300006D030228DF804208DF80500022290464A
:10214000009B83F0080353EA0A030AD15CEA010208
:1021500001D1620705D530228DF804204FF0010827
:102160007F1E582804D034A003900EA802900DE0E2
:1021700036A0F9E753466046009AFEF73EF98446DA
:102180000398825C0298401E029002705CEA010093
:10219000F0D1029806A9081A00F1200A600702D5BA
:1021A00024F4803400E00127574502DDA7EB0A0044
:1021B00000E0002000EB0A01009005984144401A1D
:1021C0000590E00306D45B462146179A059800F077
:1021D000B3F90544002706E001A85A46C05D1799E7
:1021E00090476D1C7F1C4745F6DBE0030CD55B4632
:1021F0002146179A059800F09FF9054404E0302025
:102200005A46179990476D1C0099481E0090002966
:10221000F5DC08E0029802995A460078491C0291C0
:10222000179990476D1CBAF10001AAF1010AF1DC7F
:1022300065E100000928010030313233343536378A
:102240003839616263646566000000003031323302
:1022500034353637383941424344454600000000A2
:1022600000F058F90544761C307800287FF4ECAD76
:1022700019B02846BDE8F08F620700D4062709F19F
:10228000070222F0070CFCE80223E14603F00048B5
:102290005FEA080C02D00FF2702C0DE05FEA045CDC
:1022A00002D50FF2682C07E05FEAC47C02D00FF27F
:1022B000602C01E0AFF2700C4FF0FF3823F00043C8
:1022C000CDF850C065280CD006DC452809D046283A
:1022D0001DD047283DD13DE0662818D067287ED123
:1022E00038E00021112F01DB112000E0781CCDE93E
:1022F000000106A90EA8FFF7DDFCDDE90F010E9A2B
:1023000003910021009207F1010A04914DE04FF082
:1023100000400097CDE9011006A90EA8FFF7CAFCFE
:10232000DDE90F0203920E9B11990022DDF80CA04B
:102330000093049211B9791C00EB010AB7EB0A0073
:1023400004D4C0F1FF3007F1010A0490AAEB0700A2
:10235000019044E0012F00DA01270021112F01DD57
:10236000112000E03846CDE9000106A90EA8FFF7CC
:10237000A1FCDDE90F010E9A039100210491009266
:10238000BA4621070CD40399514500DA8A46BAF1BE
:10239000010F05DD009AAAF10101515C302908D036
:1023A000B84202DA10F1040F06DA0121CDE901107A
:1023B00015E0AAF10101E9E7002805DC04990144D0
:1023C0000491AAEB000102E0411C514500DD8A4660
:1023D0000499401A401C01904FF0004002902007E1
:1023E00004D40198504501DBCDF8048000208DF81D
:1023F0004F0002980DF14F07B0F1004F25D02B2070
:102400000E9002984FF0020800280CDA4042029029
:102410002D200E9007E00A210298FDF7D8FF3031F9
:10242000029007F8011DB8F10001A8F10108F2DCE3
:1024300002980028EFD1791E0E980870307800F0CD
:10244000200040F0450007F8020D12A8C01B00F163
:1024500007081498007800B1012000EB0A010198E8
:1024600001EBE07105984144401A401E0590E003DD
:1024700006D45B462146179A059800F05DF805449E
:102480001498007818B15A46179990476D1CE003CC
:1024900024D55B462146179A059800F04DF805446F
:1024A0001CE00498002807DBDDE90301884203DD16
:1024B0000098405C179901E0179930205A469047E0
:1024C000049805F10105401C04900198401E0190FC
:1024D00004D12E205A46179990476D1CBAF100017D
:1024E000AAF1010ADDDC05E017F8010B5A4617993D
:1024F00090476D1CB8F10001A8F10108F4DC5B46BF
:102500002146179A0598ABE62D0000002B0000002D
:10251000200000002DE9F041044600251E46174624
:10252000880404D405E039462020B0476D1C641EA1
:10253000F9D52846BDE8F0812DE9F0410446002593
:102540001E469046C80301D5302700E020278804A6
:1025500004D505E041463846B0476D1C641EF9D5E8
:102560002846BDE8F08100000000000000000102E4
:102570000304060708090000000001020304010229
:1025800002030405060708090A0B0C0D0E0F1010B4
:10259000B02500080000002010000000941C000876
:1025A000C025000810000020A8040000A41C00089A
:1025B0000100000001000000100000000024F400F1
:04000005080000ED02
:00000001FF
