:020000040800F2
:1000000008040020D9000008AD040008B901000868
:1000100000000000000000000000000000000000E0
:10002000000000000000000000000000490500087A
:100030000000000000000000AF0400084B050008AD
:10004000EB000008EB000008EB000008EB000008E4
:10005000EB000008EB000008EB0000086901000855
:1000600000000000EB000008EB000008EB000008B7
:10007000EB000008EB00000800000000EB000008A7
:100080000000000000000000000000000000000070
:10009000EB00000800000000EB000008EB00000887
:1000A00000000000EB00000800000000000000005D
:1000B000EB000008EB00000800000000000000005A
:1000C0000448854600F03EF8004800476D050008EA
:1000D000C046C04608040020044880470448004742
:1000E000FEE7FEE7FEE7FEE7FEE7FEE74D05000858
:1000F000C100000830B50B46014600202022012433
:1001000009E00D46D5409D4205D31D469540491B4B
:100110002546954040191546521E002DF1DC30BD94
:10012000D2B201E00270401C491EFBD2704700228F
:10013000F6E710B513460A4604461946FFF7F0FFE6
:10014000204610BD064C0125064E05E0E36807CCAD
:100150002B430C3C98471034B442F7D3FFF7B4FF5D
:1001600088050008A805000870B50124A4032046EE
:1001700000F004F90E4E6500002811D074611420BF
:1001800000F084F90B480069844308D00521090771
:10019000486902462A40120485432A438A6170BD99
:1001A000284600F0EBF80128F9D1756170BD000018
:1001B0000004014000080050FEE70000F0B52748A9
:1001C00089B0C26A04210A43C262C26A0A40089224
:1001D000426B01210A434263406B0840089018219A
:1001E00002A8FFF7A4FF002400941D4902200194F7
:1001F00000F036F91B49022000F032F901261A4FAF
:10020000B6030394069402A938460296049400F0BB
:10021000BFF875000394069402A938460295049429
:1002200000F0B6F8009668464471022686710127F0
:10023000077100F053F868460095447186710771A4
:1002400000F04CF8094801680902090A0207114345
:10025000016007498020086009B0F0BD001002402D
:100260000300080003000C000008005004E400E054
:1002700000E100E008B518480121C26A0A43C262E1
:10028000C16AC907C90F0091C26A01219143FBD11C
:100290000121C90305200007036882009B009B0819
:1002A000134303600268920F012AFBD142688A431C
:1002B000426042680A40D20BFBD1816889008908FC
:1002C00081608168890FFCD1C16889008908C1609B
:1002D000C168890FFCD108BD0010024010B5047937
:1002E000002325490268002C3DD0002A42D04479E1
:1002F000002C0FD0012C15D0022C16D001238279AE
:10030000002A37D0012A18D0022A1FD0032A21D070
:1003100001232FE04C6894434C6002680C6814433E
:100320000C60ECE70C68944301E00C6814430C602B
:1003300002684C6814434C60E1E70268CC6894435F
:10034000CC6000688A6802438A6013E002688C68A7
:10035000944302E002688C6814438C600068CA68A9
:100360000243CA6006E00C6894430C6000684A6867
:1003700082434A60184610BD0004014003494969A0
:10038000884301D0002070470120704700040140DD
:10039000F0B500244DE00123A3401A4048D04B683B
:1003A000012B01D0022B10D18E6885681346534370
:1003B0005F00DF19BD4373431D438560CD680B6843
:1003C00046689E436B431E4346600F69C6681346EA
:1003D00053435D005D19AE435F433E43C6604E68C4
:1003E000022E1FD1FF2A0ED817464A69066A944684
:1003F0001A467A437A431701BF1ABE4367467A43C7
:10040000164306620EE0160A324672434F69724383
:100410007243BC461601B71A466ABE4367467A4322
:10042000164346624A6806685343AE431E4306605D
:10043000641C0A681346E340ADD10020F0BD000003
:1004400010B57D21C900FFF755FE0449401E4861E3
:10045000002088610520086110BD000000E000E078
:100460000A06930D054A10B59B189A68090C0F24CB
:100470008C40A243884002439A6010BD00000140B6
:1004800001490860704700000000002008B50649D7
:100490000A690092421C00D0401C0A69D20300D5B0
:1004A000401E0028F9D108BD00E000E07047704709
:1004B00010B52148012102688A430A43026001689D
:1004C000C907C90FFBD01D4801220168D2020323CE
:1004D000DB029943114301604168C906C90FFBD192
:1004E00017480168012211430160C26803218A4351
:1004F0000A43C260C168F0229143C160C16807220B
:1005000012029143C160C168D2009143C160C168C9
:10051000FD2212049143112292041143C16001682B
:100520000122120611430160064C2046FFF788FFA6
:100530002046FFF7A5FF10BD0020024000700040DC
:10054000001002400048E80170477047704702E021
:1005500008C8121F08C1002AFAD17047704700204E
:1005600001E001C1121F002AFBD17047FFF7A0FF75
:10057000FFF780FEFFF722FE0248C1690902090A5F
:10058000C161FEE704ED00E0A805000800000020BE
:10059000040000004E050008AC050008040000201F
:0C05A000040400005E05000800002000BC
:04000005080000C12E
:00000001FF
