:020000040800F2
:10000000F005002045010008451D0008211C0008DE
:10001000411D0008B50200083D2300080000000053
:10002000000000000000000000000000C51E0008E5
:10003000C102000800000000B51D00081D1F0008D7
:100040005F0100085F0100085F0100085F01000810
:100050005F0100085F0100085F0100085F01000800
:100060005F0100085F0100085F0100085F010008F0
:100070005F0100085F0100085F0100085F010008E0
:100080005F0100085F0100085F0100085F010008D0
:100090005F0100085F0100085F0100085F010008C0
:1000A0005F0100085F0100085F0100085F010008B0
:1000B0005F0100085F0100085F0100085F010008A0
:1000C0005F0100085F0100085F0100085F01000890
:1000D0005F0100082D2300085F0100085F01000890
:1000E000C50200085F0100085F0100085F01000809
:1000F0005F0100085F0100085F0100085F01000860
:100100005F0100085F0100085F0100085F0100084F
:100110005F0100085F0100085F0100085F0100083F
:100120005F0100085F0100085F0100085F0100082F
:10013000DFF80CD000F08CF80048004701240008DC
:10014000F00500200648804706480047FEE7FEE726
:10015000FEE7FEE7FEE7FEE7FEE7FEE7FEE7FEE777
:10016000911F0008310100082DE9F0410024061B11
:10017000254671F1000605DA01240027D0EB0700BF
:1001800067EB0101161E73F1000605DA0027D2EBBA
:100190000702012567EB030300F029F886460E46A7
:1001A00017469C46AC4204D00025D0EB050E65EB0B
:1001B000010624B10020D2EB000760EB030C70466F
:1001C00031463A466346BDE8F081D2B201E000F81C
:1001D000012B491EFBD270470022F6E710B51346EB
:1001E0000A4604461946FFF7F0FF204610BD2DE9E8
:1001F000F05F0546002092469B46884606468146AB
:1002000040241BE0284641464746224600F041F87C
:1002100053465A46C01A914110D3114618462246F9
:1002200000F028F82D1A67EB01084F4622460120FE
:10023000002100F01FF817EB00094E41201EA4F129
:100240000104DFDC484631462A464346BDE8F09FBC
:10025000064C074D06E0E06840F0010394E8070013
:1002600098471034AC42F6D3FFF766FF3C250008F0
:100270005C250008202A04DB203A00FA02F1002065
:1002800070479140C2F1200320FA03F319439040D4
:100290007047202A04DB203A21FA02F0002170473F
:1002A00021FA02F3D040C2F12002914008431946DE
:1002B00070470000FFE7FEE780B500F02BFC80BD33
:1002C0007047000080B54FF4804000F017FA4FF4FB
:1002D000004000F013FA80BD81B0EFF3108072B6D9
:1002E0000090FFE7FEE7000083B0019000208DF84A
:1002F0000300019890F8210002280DD0FFE7019932
:1003000004208863FFE70199002081F82000FFE7BF
:1003100001208DF80B0021E001980168086820F0A9
:100320000E00086001980168086820F0010008606C
:100330000198C16B026C012090404860FFE7019971
:10034000012081F82100FFE70199002081F82000B9
:10035000FFE79DF803008DF80B00FFE79DF80B0009
:1003600003B0704780B596B0159000208DF853000B
:10037000159890F82100022807D0FFE7159904206E
:10038000886301208DF8530074E1159801680868AE
:1003900020F00E00086015980168086820F0010040
:1003A0000860159800688121C4F202018842C0F0FB
:1003B000A880FFE7159800680821C4F2020188426E
:1003C00003D1FFE70120139094E0159800681C21E9
:1003D000C4F20201884203D1FFE71020129086E0A8
:1003E000159800683021C4F20201884204D1FFE769
:1003F0004FF48070119077E0159800684421C4F2A2
:100400000201884204D1FFE74FF48050109068E069
:10041000159800685821C4F20201884204D1FFE710
:100420004FF480300F9059E0159800686C21C4F2A9
:100430000201884204D1FFE74FF480100E904AE099
:10044000159800688021C4F20201884204D1FFE7B8
:100450004FF080700D903BE01598006840F2084125
:10046000C4F20201884203D1FFE701200C902CE086
:100470001598006840F21C41C4F20201884203D181
:10048000FFE710200B901DE01598006840F2304106
:10049000C4F20201884204D1FFE74FF480700A9051
:1004A0000DE01598016840F24442C4F202024FF494
:1004B0008030914208BF4FF480500A90FFE70A98BD
:1004C0000B90FFE70B980C90FFE70C980D90FFE75F
:1004D0000D980E90FFE70E980F90FFE70F98109081
:1004E000FFE710981190FFE711981290FFE712981C
:1004F0001390FFE7139840F20441C4F20201086030
:10050000A5E0159800680821C4F20201884203D1D1
:10051000FFE70120099094E0159800681C21C4F2BF
:100520000201884203D1FFE71020089086E0159869
:1005300000683021C4F20201884204D1FFE74FF481
:100540008070079077E0159800684421C4F202019A
:10055000884204D1FFE74FF48050069068E0159878
:1005600000685821C4F20201884204D1FFE74FF429
:100570008030059059E0159800686C21C4F20201A2
:10058000884204D1FFE74FF4801004904AE01598A8
:1005900000688021C4F20201884204D1FFE74FF0D5
:1005A000807003903BE01598006840F20841C4F267
:1005B0000201884203D1FFE7012002902CE0159848
:1005C000006840F21C41C4F20201884203D1FFE7F7
:1005D000102001901DE01598006840F23041C4F2EF
:1005E0000201884204D1FFE74FF4807000900DE0D3
:1005F0001598016840F24442C4F202024FF4803080
:10060000914208BF4FF480500090FFE7009801909E
:10061000FFE701980290FFE702980390FFE7039835
:100620000490FFE704980590FFE705980690FFE720
:1006300006980790FFE707980890FFE70898099049
:10064000FFE709980421C4F202010860FFE7159949
:10065000012081F82100FFE71599002081F8200092
:10066000FFE71598406B20B1FFE71598416B88476D
:10067000FFE7FFE79DF8530016B080BD80B58AB054
:10068000ADF8260068462421FFF7A6FDBDF8260038
:10069000B0F5804F15D1FFE701F0C4FA00900020BB
:1006A0008DF8040041F60000C4F201004FF48041CF
:1006B00000F0ECF9049001200590684601F07CFB05
:1006C000FFE7BDF82600B0F5804F15D1FFE701F038
:1006D000A9FA009000208DF8040041F60000C4F251
:1006E00001004FF4004100F0D1F904900220059080
:1006F000684601F061FBFFE70AB080BD80B582B0BB
:10070000ADF8060040F21440C4F201000068BDF8E4
:10071000061008420CD0FFE7BDF8060040F2144175
:10072000C4F201010860BDF80600FFF7A7FFFFE76C
:1007300002B080BD92B01190109100200F900B90EC
:10074000FFE7109800680F99C840002800F09B81CF
:10075000FFE70F99012088400E90109800680E99CD
:1007600008400D900D980E99884240F08881FFE76F
:10077000109840680790002851D0FFE7079801289B
:100780003AD0FFE7079802283FD0FFE707980328F1
:100790005FD0FFE70798112832D0FFE707981228AB
:1007A00038D0FFE707980021C1F21101884236D006
:1007B000FFE707980021C1F2120188422FD0FFE71E
:1007C00007980021C1F22101884228D0FFE707984D
:1007D0000021C1F22201884221D0FFE707980021C1
:1007E000C1F2310188421AD0FFE707980021C1F217
:1007F0003201884213D02FE01098C0680B902CE093
:100800001098C06804300B9027E01098C06808303A
:100810000B9022E01098C0680C300B901DE01098EF
:10082000806818B9FFE704200B9011E010988068E9
:10083000012806D1FFE708200B900E981199086156
:1008400005E008200B900E9811994861FFE7FFE73B
:1008500003E000200B9000E0FFE70D98FF2803D88D
:10086000FFE71198069003E0119804300690FFE727
:1008700006980A900D98FF2804D8FFE70F9880008B
:10088000059006E00F996FF01F0000EB81000590C6
:10089000FFE7059809900A980068099A0F2191408E
:1008A00088430B99914008430A9908601098C079D1
:1008B000C006002840F1E280FFE7FFE741F21800A0
:1008C000C4F20200016841F001010160006800F01B
:1008D000010008900898FFE70F9820F00300082116
:1008E000C4F2010140580C900F9800F00300810001
:1008F0000F2000FA01F10C9888430C90119840F6F3
:100900000001C4F20101884203D1FFE700200490F6
:1009100042E0119840F60041C4F20101884203D13F
:10092000FFE70120039034E0119841F20001C4F286
:100930000101884203D1FFE70220029026E01198CE
:1009400041F20041C4F20101884203D1FFE70320D4
:10095000019018E0119841F60001C4F201018842AB
:1009600003D1FFE7042000900AE0119941F600420C
:10097000C4F201020620914208BF05200090FFE763
:1009800000980190FFE701980290FFE7029803901A
:10099000FFE703980490FFE704980F9901F0030123
:1009A000890000FA01F10C9808430C900C980F99FB
:1009B00021F003010822C4F20102885010988079C6
:1009C000C006002809D5FFE70D9A40F20841C4F29D
:1009D000010108681043086008E00D9A40F20841E0
:1009E000C4F20101086890430860FFE7109880791D
:1009F0008006002809D5FFE70D9A40F20C41C4F2A9
:100A0000010108681043086008E00D9A40F20C41AB
:100A1000C4F20101086890430860FFE710988079EC
:100A20008007002809D5FFE70D9A40F20441C4F27F
:100A3000010108681043086008E00D9A40F2044183
:100A4000C4F20101086890430860FFE710988079BC
:100A5000C00748B1FFE70D9A40F20041C4F201011E
:100A600008681043086008E00D9A40F20041C4F2A3
:100A70000101086890430860FFE7FFE7FFE70F9870
:100A800001300F905DE612B07047000082B0019017
:100A9000ADF8021001988068BDF80210084204D039
:100AA000FFE701208DF8010003E000208DF8010030
:100AB000FFE79DF8010002B07047000083B002908C
:100AC000ADF806100298C0680090009ABDF80600C4
:100AD00002EA0001904340EA01400299086103B034
:100AE0007047000082B00190ADF802108DF801202F
:100AF0009DF8010028B1FFE7BDF8020001990861E7
:100B000005E0BDF80200000401990861FFE702B0AA
:100B10007047000040F2EC10C2F20000006870471D
:100B200040F20400C2F20000027840F2EC11C2F27E
:100B300000010868104408607047000080B542F268
:100B40000001C4F20201086840F0100008600320B0
:100B500000F096F80F2000F005F800F03BF80020B8
:100B600080BD000080B582B0009040F20000C2F26B
:100B70000000006840F20401C2F200010A784FF45C
:100B80007A71B1FBF2F1B0FBF1F000F073FD20B12E
:100B9000FFE701208DF8070018E000980F280DD816
:100BA000FFE700994FF0FF30002200F04FF8009867
:100BB00040F20801C2F20001086003E001208DF854
:100BC000070003E000208DF80700FFE79DF807000D
:100BD00002B080BD83B0FFE741F21800C4F202000A
:100BE000016841F001010160006800F0010002901D
:100BF0000298FFE7FFE741F21C00C4F2020001681F
:100C000041F080510160006800F08050019001982F
:100C1000FFE7FFE70421C4F2010108680090009893
:100C200020F0E0600090009840F000700090009884
:100C30000860FFE703B0704780B582B08DF8070009
:100C40009DF9070001F07CFB02B080BD80B586B045
:100C50008DF81700049103920020029001F088FBA8
:100C600002909DF91700019002980499039A01F0EF
:100C70006BF80146019801F083FB06B080BD0000CF
:100C800080B582B00190019801F09CFB02B080BD5C
:100C900080B584B002900191029820B9FFE701204D
:100CA0008DF80F001BE1019842F20001C4F202012D
:100CB000096801F00701884216D9FFE742F20000F7
:100CC000C4F20200016821F00701019A114301609A
:100CD000006800F007000199884204D0FFE7012076
:100CE0008DF80F00FBE0FFE70298007880070028EE
:100CF0002AD5FFE7029800784007002809D5FFE7CA
:100D000041F20401C4F20201086840F4E0600860A6
:100D1000FFE7029800780007002809D5FFE741F2B5
:100D20000401C4F20201086840F460500860FFE763
:100D300041F20401C4F20201086820F0F000029AB6
:100D4000926810430860FFE702980078C007002807
:100D500060D0FFE70298406801280ED1FFE741F21A
:100D60000000C4F2020000688003002804D4FFE7FA
:100D700001208DF80F00B2E021E0029840680228BF
:100D80000ED1FFE741F20000C4F2020000688001CA
:100D9000002804D4FFE701208DF80F009FE00DE04C
:100DA00041F20000C4F2020000688007002804D469
:100DB000FFE701208DF80F0091E0FFE7FFE741F228
:100DC0000401C4F20201086820F00300029A52688C
:100DD00010430860FFF79EFE0090FFE741F2040019
:100DE000C4F20200006800F00C0002994968B0EB00
:100DF000810F0ED0FFE7FFF78DFE0099401A41F2F8
:100E00008931884204D3FFE703208DF80F0066E0A4
:100E1000E4E7FFE7019842F20001C4F20201096829
:100E200001F00701884216D2FFE742F20000C4F247
:100E30000200016821F00701019A11430160006876
:100E400000F007000199884204D0FFE701208DF8E7
:100E50000F0044E0FFE702980078400700280CD517
:100E6000FFE741F20401C4F20201086820F4E060E7
:100E7000029AD26810430860FFE7029800780007E2
:100E800000280DD5FFE741F20401C4F20201086811
:100E900020F46050029A126940EAC2000860FFE73D
:100EA00000F04CF841F20401C4F202010968C9B231
:100EB0000A0942F21251C0F60001895CC84040F2B2
:100EC0000001C2F20001086040F20800C2F2000016
:100ED0000068FFF747FE00208DF80F00FFE79DF840
:100EE0000F0004B080BD000040F20000C2F200001C
:100EF0000068704780B5FFF7F7FF41F20401C4F2C4
:100F000002010968C1F3022242F22251C0F6000137
:100F1000895CC84080BD000080B5FFF7E5FF41F265
:100F20000401C4F202010968C1F3C22242F2225153
:100F3000C0F60001895CC84080BD000086B000207A
:100F40000590049003900290019041F20400C4F2D5
:100F5000020000680590059800F00C000146009121
:100F600000283FD0FFE70098042804D0FFE700984E
:100F7000082806D037E041F20020C0F27A00019044
:100F800037E00598C0F3834142F22A50C0F60000D2
:100F9000405C02909DF81600C007C0B1FFE741F227
:100FA0000400C4F202000068C0F3404142F23A502B
:100FB000C0F60000405C0490029841F20021C0F2AB
:100FC0007A0148430499B0FBF1F0039007E00298DE
:100FD00040F60011C0F23D0148430390FFE703983B
:100FE000019006E0FFE741F20020C0F27A00019094
:100FF000FFE7019806B0704780B586B0049004986A
:1010000020B9FFE701208DF817002EE3049800783F
:10101000C007002800F0AE80FFE741F20400C4F2F0
:101020000200006800F00C00042813D0FFE741F232
:101030000400C4F20200006800F00C0008281BD174
:10104000FFE741F20400C4F202000068C003002878
:1010500012D5FFE741F20000C4F2020000688003ED
:10106000002808D5FFE70498406820B9FFE7012071
:101070008DF81700F9E27CE0FFE704984068B0F5CE
:10108000803F09D1FFE741F20001C4F20201086884
:1010900040F48030086032E00498406868B9FFE7A7
:1010A00041F20001C4F20201086820F480300860B7
:1010B000086820F48020086020E004984068B0F5BB
:1010C000A02F0DD1FFE741F20001C4F20201086830
:1010D00040F480200860086840F4803008600CE02C
:1010E00041F20001C4F20201086820F48030086077
:1010F000086820F480200860FFE7FFE7FFE7FFE7CC
:1011000004984068D0B1FFE7FFF704FD0390FFE7C4
:1011100041F20000C4F202000068800300280CD4F1
:10112000FFE7FFF7F7FC0399401A652804D3FFE7B0
:1011300003208DF8170098E2EAE719E0FFF7EAFCD0
:101140000390FFE741F20000C4F202000068800350
:1011500000280CD5FFE7FFF7DDFC0399401A65284E
:1011600004D3FFE703208DF817007EE2EAE7FFE7EC
:10117000FFE7FFE7049800788007002840F18D80A2
:10118000FFE741F20400C4F20200006810F00C0F07
:1011900013D0FFE741F20400C4F20200006800F03F
:1011A0000C00082829D1FFE741F20400C4F2020034
:1011B0000068C003002820D4FFE741F20000C4F219
:1011C000020000688007002809D5FFE7049800693D
:1011D000012804D0FFE701208DF8170045E241F215
:1011E0000001C4F20201086820F0F800049A526974
:1011F00040EAC2000860FFE74EE00498006958B377
:10120000FFE70021C4F2422101200860FFF782FCC1
:101210000390FFE741F20000C4F20200006880077B
:1012200000280CD4FFE7FFF775FC0399401A032848
:1012300004D3FFE703208DF8170016E2EAE741F236
:101240000001C4F20201086820F0F800049A526913
:1012500040EAC20008601EE00021C4F242210020E2
:101260000860FFF757FC0390FFE741F20000C4F26B
:1012700002000068800700280CD5FFE7FFF74AFC52
:101280000399401A032804D3FFE703208DF81700C1
:10129000EBE1EAE7FFE7FFE7FFE7049800780007E4
:1012A000002848D5FFE70498806918B3FFE740F2AB
:1012B0008041C4F2422101200860FFF72BFC03901B
:1012C000FFE741F22400C4F2020000688007002812
:1012D0000CD4FFE7FFF71EFC0399401A032804D340
:1012E000FFE703208DF81700BFE1EAE7012000F0D7
:1012F000CBFD1FE040F28041C4F242210020086093
:10130000FFF708FC0390FFE741F22400C4F202005B
:101310000068800700280CD5FFE7FFF7FBFB039967
:10132000401A032804D3FFE703208DF817009CE13F
:10133000EAE7FFE7FFE7049800784007002840F15C
:10134000D880FFE700208DF8070041F21C00C4F2AE
:1013500002000068C000002813D4FFE7FFE741F255
:101360001C00C4F20200016841F080510160006875
:1013700000F0805000900098FFE701208DF80700F2
:10138000FFE747F20000C4F200000068C005002833
:1013900022D4FFE747F20001C4F20001086840F4DC
:1013A00080700860FFF7B6FB0390FFE747F200008C
:1013B000C4F200000068C00500280CD4FFE7FFF766
:1013C000A9FB0399401A652804D3FFE703208DF891
:1013D00017004AE1EAE7FFE7FFE70498C068012841
:1013E00009D1FFE741F22001C4F20201086840F090
:1013F0000100086031E00498C06868B9FFE741F275
:101400002001C4F20201086820F0010008600868A9
:1014100020F0040008601FE00498C06805280DD182
:10142000FFE741F22001C4F20201086840F0040025
:101430000860086840F0010008600CE041F22001FB
:10144000C4F20201086820F001000860086820F07A
:1014500004000860FFE7FFE7FFE7FFE70498C068C4
:10146000E0B1FFE7FFF756FB0390FFE741F22000F2
:10147000C4F202000068800700280ED4FFE7FFF7DF
:1014800049FB0399401A41F28931884204D3FFE7AE
:1014900003208DF81700E8E0E8E71BE0FFF73AFBD0
:1014A0000390FFE741F22000C4F2020000688007C9
:1014B00000280ED5FFE7FFF72DFB0399401A41F2F4
:1014C0008931884204D3FFE703208DF81700CCE070
:1014D000E8E7FFE79DF80700012809D1FFE741F29F
:1014E0001C01C4F20201086820F080500860FFE788
:1014F000FFE70498C069002800F0B380FFE741F2DD
:101500000400C4F20200006800F00C00082800F09B
:101510008280FFE70498C06902285CD1FFE7602160
:10152000C4F2422100200860FFF7F4FA0390FFE7BD
:1015300041F20000C4F202000068800100280CD5CE
:10154000FFE7FFF7E7FA0399401A032804D3FFE700
:1015500003208DF8170088E0EAE70498006AB0F5E8
:10156000803F0CD1FFE741F20401C4F20201086898
:1015700020F40030049A926810430860FFE741F2BB
:101580000401C4F20201086820F47410049B1A6A72
:101590005B6A1A43104308606021C4F242210120B3
:1015A0000860FFF7B7FA0390FFE741F20000C4F2CA
:1015B00002000068800100280CD4FFE7FFF7AAFAB8
:1015C0000399401A032804D3FFE703208DF817007E
:1015D0004BE0EAE71EE06021C4F2422100200860EF
:1015E000FFF798FA0390FFE741F20000C4F202000F
:1015F0000068800100280CD5FFE7FFF78BFA0399FC
:10160000401A032804D3FFE703208DF817002CE0CD
:10161000EAE7FFE724E00498C069012804D1FFE766
:1016200001208DF8170020E041F20400C4F202000E
:1016300000680290029800F480300499096A884298
:1016400008D1FFE7029800F470100499496A8842B3
:1016500004D0FFE701208DF8170006E0FFE7FFE761
:10166000FFE700208DF81700FFE79DF8170006B090
:1016700080BD000080B582B00190019800F024FC8C
:1016800002B080BD82B00190ADF8021002B0704788
:1016900081B0009001B0704780B592B01190119860
:1016A00000680068109011980068C0680F90119849
:1016B000006840690E9000200D900C90109800F08A
:1016C0000F000D900D9888B9FFE79DF84000800647
:1016D00000280AD5FFE79DF83C008006002804D5C5
:1016E000FFE7119800F0C4FCE9E1FFE70D9800283E
:1016F00000F0C280FFE79DF83800C00738B9FFE767
:10170000BDF83C0010F4907F00F0B680FFE79DF834
:101710004000C00758B1FFE79DF83D00C00730B159
:10172000FFE71199486C40F001004864FFE79DF81D
:101730004000400700280BD5FFE79DF83800C007A0
:1017400030B1FFE71199486C40F002004864FFE7B0
:101750009DF84000800700280BD5FFE79DF8380072
:10176000C00730B1FFE71199486C40F004004864AD
:10177000FFE79DF840000007002811D5FFE79DF81E
:101780003C008006002805D4FFE79DF83800C0071C
:1017900030B1FFE71199486C40F008004864FFE75A
:1017A0001198406C002866D0FFE79DF84000800645
:1017B00000280AD5FFE79DF83C008006002804D5E4
:1017C000FFE7119800F054FCFFE7119800684069AA
:1017D000C0F380100C901198406C0007002804D4CE
:1017E000FFE70C9800283ED0FFE7119800F0E2FBDD
:1017F000119800684069400600282FD5FFE7FFE7F1
:10180000FFE71198006850E8050F20F040000B90AA
:10181000FFE70B991198026842E805100028F0D103
:10182000FFE7FFE71198C06B98B1FFE71198C16B14
:1018300041F69570C0F6000048631198C06BFEF742
:1018400091FD28B1FFE71198C06B416B8847FFE716
:1018500003E01198FFF71CFFFFE703E01198FFF783
:1018600017FFFFE706E01198FFF712FF119900201C
:101870004864FFE7FFE722E11198006B012840F080
:10188000FE80FFE79DF84000C006002840F1F78089
:10189000FFE79DF83C00C006002840F1F080FFE71C
:1018A000FFE700200A901198006800680A901198DC
:1018B000006840680A900A98FFE71198006840693C
:1018C0004006002840F18180FFE71198C06B006856
:1018D0004068ADF82600BDF82600002874D0FFE768
:1018E000BDF826001199898D88426DDAFFE7BDF8B1
:1018F00026001199C8851198C06B8069202858D09E
:10190000FFE7FFE7FFE71198006850E8030F20F4B6
:1019100080700890FFE708991198026842E8031068
:101920000028F0D1FFE7FFE7FFE7FFE71198006825
:1019300050E8050F20F001000790FFE70799119884
:10194000026842E805100028F0D1FFE7FFE7FFE753
:10195000FFE71198006850E8050F20F0400006905E
:10196000FFE706991198026842E805100028F0D1B7
:10197000FFE7FFE71199202081F84200119900202C
:101980000863FFE7FFE71198006850E8030F20F0B5
:1019900010000590FFE705991198026842E80310CE
:1019A0000028F0D1FFE7FFE71198C06BFEF79CFC21
:1019B000FFE71199022048631198818DC28D891A21
:1019C00089B2FFF75FFEFFE779E01199888DC98D35
:1019D000401AADF812001198C08D00284ED0FFE7D4
:1019E000BDF81200002849D0FFE7FFE7FFE7119894
:1019F000006850E8030F20F490700390FFE703990C
:101A00001198026842E803100028F0D1FFE7FFE7D1
:101A1000FFE7FFE71198006850E8050F20F001008C
:101A20000290FFE702991198026842E80510002829
:101A3000F0D1FFE7FFE71199202081F842001199CA
:101A400000200863FFE7FFE71198006850E8030FE4
:101A500020F010000190FFE701991198026842E818
:101A600003100028F0D1FFE7FFE711990220486337
:101A70001198BDF81210FFF705FEFFE71FE09DF873
:101A80004000000600280AD5FFE79DF83C0000064C
:101A9000002804D5FFE7119800F0FEFB0FE09DF849
:101AA0004000400600280AD5FFE79DF83C004006AC
:101AB000002804D5FFE7119800F0C6FAFFE712B03E
:101AC00080BD000080B582B00090009820B9FFE78B
:101AD00001208DF8070040E00098806908B1FFE719
:101AE00000E0FFE7009890F8410040B9FFE7009957
:101AF000002081F84000009800F034F8FFE70099DA
:101B0000242081F8410000980168C86820F4005042
:101B1000C860009800F062FB00980168086920F432
:101B20009040086100980168486920F02A004861E7
:101B300000980168C86840F40050C860009900200F
:101B40004864009A202182F84110009A82F84210DD
:101B5000009948638DF80700FFE79DF8070002B081
:101B600080BD000080B58CB00B9000200A900990D9
:101B7000089007900B98006843F60001C4F2010139
:101B8000884243D1FFE7FFE741F21800C4F20200A8
:101B9000016841F480410160006800F480400690D3
:101BA0000698FFE7FFE741F21800C4F2020001685F
:101BB00041F004010160006800F004000590059800
:101BC000FFE74FF4007007900220089003200A906E
:101BD00040F60000C4F20100019007A90291FEF74F
:101BE000A9FD019802994FF48062079200220392A6
:101BF00008920992FEF79EFD039A25200490114653
:101C0000FFF724F80498FFF717F8FFE70CB080BD42
:101C100081B0009001B0704781B0009001B0704772
:101C2000FFE7FEE780B5FEF747FB80BD80B58EB0CD
:101C300000200D900C900B900A90FFE741F21800E5
:101C4000C4F20200016841F080010160006800F008
:101C5000800009900998FFE7FFE741F21800C4F2FD
:101C60000200016841F040010160006800F040009E
:101C700008900898FFE7FFE741F21800C4F202005D
:101C8000016841F004010160006800F00400079061
:101C90000798FFE741F60040C4F2010002904FF4BC
:101CA0007071019100220592FEF71CFF019A0298C3
:101CB00005990A92012203920B920C9102210D9137
:101CC0000AA90491FEF736FD039804994FF44042A7
:101CD0000A920022C1F221020B920C9041F6000000
:101CE000C4F20100FEF726FD059A28200690114651
:101CF000FEF7ACFF0698FEF79FFF0EB080BD000018
:101D000080B582B040F2A410C2F20000019043F608
:101D10000001C4F2010101604FF4E1314160002192
:101D20008160C16001610C2242618161C161FFF784
:101D3000C9FE18B1FFE7FEF7CFFAFFE702B080BD9A
:101D4000FFE7FEE7FFE7FEE788B007900691059200
:101D5000079800F0070004900498C0F107000528D8
:101D600003D3FFE70420019004E00498C0F10700CA
:101D70000190FFE70198039004980430062803D8E7
:101D8000FFE70020009003E0049803380090FFE78D
:101D90000098029006980399012202FA01F1013994
:101DA0000840029B984005999A40013A1140084327
:101DB00008B0704770470000F0B585B003900398F5
:101DC00020B9FFE74FF0FF3004905AE040F21001D5
:101DD000C2F20001D1F88C01431C48F6A330CBF6C7
:101DE0002E20A3FB0020C0080B2200FB1230029023
:101DF0000298D1F8901188423FD0FFE740F21001DD
:101E0000C2F20001D1F88C0100EBC00701EB8702A0
:101E10000092DDF80CC0CDF804C0DCF81040DCF80E
:101E20001450DCF80060DCF80400DCF80830DCF862
:101E30000CE041F8276055611461C2F80CE0936032
:101E40005060DCF81800DCF81C30DCF820C0C2F868
:101E500020C0D3619061D1F88C01431C48F6A330B7
:101E6000CBF62E20A3FB0020C0080B2200FB123073
:101E7000C1F88C010020049003E04FF0FF30049083
:101E8000FFE7049805B0F0BD82B00190019840F2E0
:101E90000001C2F200010968C90844F6D352C1F238
:101EA0006202A1FB0221890948430090FFE700BFBD
:101EB000FFE70098411E00910028F8D1FFE702B02B
:101EC000704700007047000080B582B00090009815
:101ED0000138B0F1807F03D3FFE70120019019E0C2
:101EE000009801384EF21401CEF2000108604FF064
:101EF000FF300F2100F044FA4EF21801CEF200013B
:101F0000002008604EF21002CEF20002072111609C
:101F10000190FFE7019802B080BD000080B5FEF798
:101F2000FFFD80BD80B590B006A800902821FEF787
:101F300053F90098002305930493039302930193AC
:101F4000012206924FF48031079108930A920222EF
:101F50000D920E914FF4E0110F91FFF74DF818B16B
:101F6000FFE7FEF7B9F9FFE70F2001900221029188
:101F7000002003904FF480620492059001A8FEF7C0
:101F800087FE18B1FFE7FEF7A7F9FFE710B080BDA5
:101F90007047000080B582B001900198406A0090BF
:101FA00000990020C8850099C8840098FFF770FB4D
:101FB00002B080BD84B00390FFE7FFE7039800689C
:101FC00050E8030F20F490700290FFE70299039805
:101FD000026842E803100028F0D1FFE7FFE7FFE7BF
:101FE000FFE70398006850E8050F20F0010001901A
:101FF000FFE701990398026842E805100028F0D134
:10200000FFE7FFE70398006B012814D1FFE7FFE724
:10201000FFE70398006850E8030F20F010000090DD
:10202000FFE700990398026842E803100028F0D106
:10203000FFE7FFE7FFE70399202081F842000399BB
:102040000020086304B0704780B582B00190019809
:102050000168C86820F04000C8600199202081F81C
:1020600041000198FFF7D8FD002002B080BD0000BC
:1020700080B586B00490049890F84200222840F081
:10208000A480FFE704988068B0F5805F15D1FFE772
:102090000498006988B9FFE7002003900498806ADB
:1020A00002900498006840686FF35F2002990880EE
:1020B0000499886A0230886225E00498806A039057
:1020C0000020029004988068B0F5805F08D0FFE798
:1020D0000498806850B9FFE70498006930B9FFE7B9
:1020E0000498006840680399087007E00498006845
:1020F000406800F07F0003990870FFE70499886A40
:1021000001308862FFE70499C88D0138C885000452
:10211000002856D1FFE704980168C86820F0200025
:10212000C86004980168C86820F48070C86004988A
:102130000168486920F0010048610499202081F875
:1021400042000499002048630498006B012830D1B4
:10215000FFE7049900200863FFE7FFE704980068A1
:1021600050E8030F20F010000190FFE70199049858
:10217000026842E803100028F0D1FFE7FFE7049867
:1021800000680068C00600280ED5FFE7FFE70020C2
:102190000090049800680068009004980068406807
:1021A00000900098FFE7FFE70498818DFFF76AFA37
:1021B00003E00498FFF72CFDFFE700208DF81700DF
:1021C00007E000208DF8170003E002208DF81700CB
:1021D000FFE79DF8170006B080BD000080B584B011
:1021E000039003980068006920F44050039A116836
:1021F000D26810430861039988680A6949691043E5
:102200000843029003980068C06841F20C6188435B
:102210000299084303990968C860039800684069F7
:1022200020F44070039A1168926910434861039842
:10223000006843F60001C4F20101884204D1FFE7BF
:10224000FEF76AFE019003E0FEF754FE0190FFE7FF
:10225000019819214843039A116852689200B0FB13
:10226000F2FC48F21F52C5F2EB12ACFB02304309FC
:10227000642003FB10CC322000EB0C10A0FB020208
:10228000F02000EA521000EB0310C2F34312104496
:10229000886004B080BD000083B00190019890F880
:1022A000410021283AD1FFE701988068B0F5805FAE
:1022B00013D1FFE70198006978B9FFE70198006A38
:1022C0000090009800886FF35F20019909684860CA
:1022D0000199086A0230086208E0019A106A411CFC
:1022E00011620078019909684860FFE70199C88C7C
:1022F0000138C884000468B9FFE701980168C8681C
:1023000020F08000C86001980168C86840F0400073
:10231000C860FFE700208DF80B0003E002208DF875
:102320000B00FFE79DF80B0003B0704780B540F24B
:10233000A410C2F20000FFF7AFF980BDFFE7FEE78F
:1023400081B08DF803009DF9030000280ED4FFE74B
:102350009DF9031001F01F02012090404A094EF23E
:102360000011CEF2000141F82200FFE701B07047F2
:102370004EF60C50CEF200000068C0F30220704709
:1023800082B08DF8070000919DF9070000280AD45B
:10239000FFE7009800019DF907104EF20042CEF2CF
:1023A000000288540BE0009800019DF8071001F02E
:1023B0000F014EF61452CEF200028854FFE702B02D
:1023C0007047000083B00290029800F00700009070
:1023D0004EF60C51CEF200010868019001984FF6BC
:1023E000FF02104001900198009A40EA022000226A
:1023F000C0F2FA52104301900198086003B0704790
:1024000080B582B000200190FEF798FBFFF78AFDAF
:10241000FFF70CFCFFF774FC00F00CF8FFE70A2054
:1024200000F028F841F60040C4F201004021FEF718
:1024300045FBF4E74EF6FC51CEF20001086820F0AF
:1024400080700860086840F08070086041F2000108
:10245000CEF20001086820F001000860086840F032
:102460000100086041F20401CEF200010020086082
:102470007047000080B582B0019000200090FFE717
:1024800000980199884209D2FFE74FF47A7000F072
:1024900007F8FFE7009801300090F1E702B080BD37
:1024A00080B584B0039041F20400CEF200000068D1
:1024B000029003980090FEF741FD0099C217A1FB1E
:1024C000000301FB023144F24022C0F20F0200235C
:1024D000FDF74AFE0190FFE741F20400CEF2000052
:1024E00000680299401A0199884201D2FFE7F3E798
:1024F00004B080BD02E008C8121F08C1002AFAD14A
:1025000070477047002001E001C1121F002AFBD173
:1025100070470000000000000000010203040607ED
:102520000809000000000102030402030405060775
:1025300008090A0B0C0D0E0F10100102602500088F
:102540000000002010000000F4240008702500089E
:1025500010000020E0050000042500080000000035
:102560000024F40001000000100000000000000042
:0400000508000131BD
:00000001FF
